:100000000C9462000C948A000C948A000C948A0070
:100010000C948A000C948A000C948A000C948A0038
:100020000C948A000C948A000C948A000C942E0381
:100030000C948A000C948A000C948A000C948A0018
:100040000C94E4020C948A000C94B2020C948C027E
:100050000C948A000C948A000C948A000C948A00F8
:100060000C948A000C948A000000000024002700F1
:100070002A0000000000250028002B0000000000DE
:1000800023002600290004040404040404040202DA
:100090000202020203030303030301020408102007
:1000A0004080010204081020010204081020000012
:1000B0000008000201000003040700000000000027
:1000C0000000EE0511241FBECFEFD8E0DEBFCDBF8C
:1000D00011E0A0E0B1E0E6E4FCE002C005900D9282
:1000E000A237B107D9F722E0A2E7B1E001C01D9223
:1000F000AD32B207E1F710E0C2E6D0E004C02197CC
:10010000FE010E941B06C136D107C9F70E945404A4
:100110000C9421060C940000AF92BF92CF92DF9214
:10012000EF92FF920F931F93CF93DF936C017B01AC
:100130008B01040F151FEB015E01AE18BF08C0173D
:10014000D10759F06991D601ED91FC910190F081B0
:10015000E02DC6010995892B79F7C501DF91CF9173
:100160001F910F91FF90EF90DF90CF90BF90AF90D5
:100170000895FC01538D448D252F30E0842F90E0AD
:10018000821B930B541710F0CF9608950197089592
:10019000FC01918D828D981761F0A28DAE0FBF2F5B
:1001A000B11D5D968C91928D9F5F9F73928F90E0B1
:1001B00008958FEF9FEF0895FC01918D828D981720
:1001C00031F0828DE80FF11D858D90E008958FEF5D
:1001D0009FEF0895FC01918D228D892F90E0805C26
:1001E0009F4F821B91098F739927089580E991E0B1
:1001F0000E94EA0021E0892B09F420E0822F089573
:1002000080E090E0892B29F00E94F60081110C9487
:1002100000000895FC01A48DA80FB92FB11DA35AA9
:10022000BF4F2C91848D90E001968F739927848F16
:10023000A689B7892C93A089B1898C918370806439
:100240008C93938D848D981306C00288F389E02DDA
:1002500080818F7D80830895EF92FF920F931F938B
:10026000CF93DF93EC0181E0888F9B8D8C8D981369
:100270001AC0E889F989808185FF15C09FB7F89475
:10028000EE89FF896083E889F989808183708064C1
:1002900080839FBF81E090E0DF91CF911F910F910C
:1002A000FF90EF900895F62E0B8D10E00F5F1F4F1B
:1002B0000F731127E02E8C8D8E110CC00FB607FC2A
:1002C000FACFE889F989808185FFF5CFCE010E94B8
:1002D0000A01F1CFEB8DEC0FFD2FF11DE35AFF4F1B
:1002E000F0829FB7F8940B8FEA89FB898081806246
:1002F000CFCFCF93DF93EC01888D8823B9F0AA8903
:10030000BB89E889F9898C9185FD03C0808186FDD0
:100310000DC00FB607FCF7CF8C9185FFF2CF80811F
:1003200085FFEDCFCE010E940A01E9CFDF91CF9189
:100330000895833081F028F4813099F08230A9F05B
:1003400008958730A9F08830C9F08430B1F48091E5
:1003500080008F7D03C0809180008F778093800024
:10036000089584B58F7784BD089584B58F7DFBCFC4
:100370008091B0008F778093B00008958091B00095
:100380008F7DF9CFCF93DF93282F30E0F901E2552D
:10039000FF4F8491F901E656FF4FD491F901EA57D6
:1003A000FF4FC491CC23A1F081110E949901EC2F41
:1003B000F0E0EE0FFF1FE458FF4FA591B491EC91D0
:1003C000ED2381E090E009F480E0DF91CF91089582
:1003D00080E090E0FACF1F93CF93DF93282F30E097
:1003E000F901E255FF4F8491F901E656FF4FD49190
:1003F000F901EA57FF4FC491CC23A9F0162F8111C0
:100400000E949901EC2FF0E0EE0FFF1FEE58FF4F16
:10041000A591B4918FB7F894EC91111108C0D095C3
:10042000DE23DC938FBFDF91CF911F910895DE2BE8
:10043000F8CFCF93DF9390E0FC01E656FF4F249175
:100440008A579F4FFC0184918823C9F090E0880F60
:10045000991FFC01E859FF4FA591B491FC01EE589A
:10046000FF4FC591D49161110DC09FB7F8948C9145
:10047000209582238C938881282328839FBFDF9136
:10048000CF910895623051F49FB7F8943C91822F38
:10049000809583238C93E8812E2BEFCF8FB7F89430
:1004A000EC912E2B2C938FBFEACF3FB7F89480911D
:1004B000860190918701A0918801B091890126B5AC
:1004C000A89B05C02F3F19F00196A11DB11D3FBF8C
:1004D000BA2FA92F982F8827BC01CD01620F711D5B
:1004E000811D911D42E0660F771F881F991F4A9555
:1004F000D1F708958627082E8295807F8025092EC2
:10050000982F82958F700826869598278927880FBF
:10051000880F880F802508951F920F920FB60F92B3
:1005200011242F933F934F935F936F937F938F93F8
:100530009F93AF93BF93EF93FF9380E991E00E9465
:100540000A01FF91EF91BF91AF919F918F917F91A0
:100550006F915F914F913F912F910F900FBE0F9030
:100560001F9018951F920F920FB60F9211242F9380
:100570008F939F93EF93FF93E091A001F091A101DE
:100580008081E091A601F091A70182FD1BC09081BE
:100590008091A9018F5F8F732091AA01821741F08A
:1005A000E091A901F0E0E057FE4F958F8093A901FB
:1005B000FF91EF919F918F912F910F900FBE0F9010
:1005C0001F9018958081F4CF1F920F920FB60F9253
:1005D00011242F933F938F939F93AF93BF93809159
:1005E000820190918301A0918401B09185013091A5
:1005F000810123E0230F2D3758F50196A11DB11D70
:10060000209381018093820190938301A0938401C0
:10061000B09385018091860190918701A091880116
:10062000B09189010196A11DB11D8093860190931F
:100630008701A0938801B0938901BF91AF919F91E9
:100640008F913F912F910F900FBE0F901F90189593
:1006500026E8230F0296A11DB11DD2CF1F920F9243
:100660000FB60F9211240F931F932F933F934F9325
:100670005F936F937F938F939F93AF93BF93CF932A
:10068000DF93EF93FF938BE00E94C201D82F8093FA
:10069000800180918A01882339F180918C0191E059
:1006A000980F90938C0181111FC0C0918E01009111
:1006B000000180918F01C81708F4AAC060E08AE0A9
:1006C0000E94EB0160E0802F0E94EB0110928A01F2
:1006D00081E080938B0180917E0190917F01019652
:1006E00090937F0180937E0180918C01883010F07F
:1006F00010928C0180918B01882309F474C0DD2352
:1007000029F080917D018F5F80937D0180917B0135
:1007100090917C01D91709F499C09BE0803508F0CD
:100720009DE1890F80937B01D0937C0120917B0117
:10073000203A08F458C08091790190917A019695F9
:10074000879590937A018093790130917D013530BE
:1007500028F0986090937A0180937901205A209331
:100760007B0110927D0180917801882309F48AC071
:10077000809177018F5F809377018C30A0F1809119
:10078000790190917A01382F3F73E7E5F1E0DF01BD
:1007900020E04D91341721F02F5F2031D1F720E078
:1007A00036E0969587953A95E1F7982F80E031915C
:1007B000931721F08F5F8031D1F780E0909176011F
:1007C000911148C090E1299F90011124822B8093C0
:1007D000750184508B31F0F1109278018091740191
:1007E0008F5F80937401FF91EF91DF91CF91BF9163
:1007F000AF919F918F917F916F915F914F913F91B9
:100800002F911F910F910F900FBE0F901F90189571
:10081000EC2FF0E0EF5FFE4F608120918D0111E041
:10082000120F10938D0181E090E001C0880F2A958E
:10083000EAF76823802F0E94EB01163008F45ACFA4
:1008400010928D01CF5FC0938E014ECF8C5E80934E
:100850007B016CCF809176018F5F809376019091C0
:10086000760180917501981750F01092780180916F
:1008700073018F5F8093730181E080937201109206
:100880007701B1CF8091790190917A0188339B40B3
:1008900009F0A9CF81E0809378011092770110923E
:1008A0007601109272019FCF789484B5826084BDE6
:1008B00084B5816084BD85B5826085BD85B5816064
:1008C00085BD80916E00816080936E0010928100E2
:1008D000809181008260809381008091810081609D
:1008E000809381008091800081608093800080915E
:1008F000B10084608093B1008091B00081608093EA
:10090000B00080917A00846080937A0080917A00B0
:10091000826080937A0080917A00816080937A006F
:1009200080917A00806880937A001092C100E091F3
:10093000A001F091A10182E08083E0919C01F091FF
:100940009D011082E0919E01F0919F018FEC8083C8
:100950001092A801E091A401F091A50186E08083A6
:10096000E091A201F091A301808180618083E091F8
:10097000A201F091A301808188608083E091A201AF
:10098000F091A301808180688083E091A201F091C1
:10099000A30180818F7D80838CE080930001109281
:1009A000800089E08093810088EE93E09093890035
:1009B0008093880080916F00826080936F0061E077
:1009C000809100010E94190260E08BE00E941902F0
:1009D00061E08AE00E94190260E08AE00E94EB0177
:1009E00062E082E00E94190200E010E082E00E94D2
:1009F000C20157E6E52E51E0F52E892B21F48BE656
:100A0000E82E81E0F82EF70101900020E9F73197F8
:100A1000AF014E195F09B70180E991E00E948C0097
:100A200042E050E06EE671E080E991E00E948C00C7
:100A3000E70109900020E9F72197CE19DF099C2EE4
:100A4000FBE1FC1708F499C080918A018111FCCF69
:100A5000DC2E23E0D20E6D2D8FEF9FEF0E947A02E5
:100A6000ED2DF0E034E0F595E7953A95E1F7E95A98
:100A7000FE4F208120930901ED2DEF70F0E0E95A3F
:100A8000FE4F208120930A018E2C41E0A42E41E0EC
:100A9000B42E6701E2E0AE0EB11C2C2D28192915E9
:100AA000D8F4F601F1906F016F2D0E947A02EF2DBC
:100AB000F0E024E0F595E7952A95E1F7E95AFE4F35
:100AC0002081F5012087EF2DEF70F0E0E95AFE4F0D
:100AD0002081F5012187DECFAE0155272C2F2F5F16
:100AE000220F80959095DA01AA0FBB1FA55FBE4F1C
:100AF000FC0164E0F695E7956A95E1F7EF70FF2752
:100B0000E95AFE4F30813C93440F551FFA01E45FD0
:100B1000FE4FDC01AF70BB27A95ABE4F3C9130831A
:100B2000CE5FCC0FD0E0C75FDE4FFC01EF2FFF2779
:100B3000E295EF70E95AFE4F30813883A3E0A20FAF
:100B4000B0E0A75FBE4FE92FFF27EF70FF27E95AFC
:100B5000FE4F80818C93245F20938F0110928E0131
:100B600010928D0110928C0110928B0161E08AE04D
:100B70000E94EB0181E080938A010E9455024B01A3
:100B80005C0190E9C92EDD24D394E12CF12C0E9464
:100B90005502681979098A099B09683E73408105E5
:100BA0009105A8F3F1E0CF1AD108E108F10828EE89
:100BB000820E23E0921EA11CB11CC114D104E104D9
:100BC000F10429F70115110509F410CF0E94F60070
:100BD000882309F40BCF0E94000008CFE0E9F1E080
:100BE0001382128288EE93E0A0E0B0E084839583C4
:100BF000A683B78389E491E09183808385EC90E0BC
:100C00009587848784EC90E09787868780EC90E0D6
:100C1000918B808B81EC90E0938B828B82EC90E0C7
:100C2000958B848B86EC90E0978B868B118E128E41
:100C3000138E148E0895EE0FFF1F0590F491E02D92
:060C40000994F894FFCFB7
:100C46000C2A2A2A2A2A2A382C0000000000000032
:100C5600000000000000000000000000000000008E
:100C6600000000000000000000000000000000007E
:100C7600000000000000000000000000000000006E
:100C86000000000000000000002C018C00B9007973
:100C960001EA00C800DC000D0E131516191A1C23F4
:100CA6002526292A2C32346F6666006F6E000D0ADF
:020CB60000003C
:00000001FF
