:020000040000FA
:100000000C9462000C948A000C948A000C948A0070
:100010000C948A000C948A000C948A000C948A0038
:100020000C948A000C948A000C948A000C948A0028
:100030000C948A000C948A000C948A000C948A0018
:100040000C9450030C948A000C941E030C94F80238
:100050000C948A000C948A000C948A000C948A00F8
:100060000C948A000C948A000000000024002700F1
:100070002A0000000000250028002B0000000000DE
:1000800023002600290004040404040404040202DA
:100090000202020203030303030301020408102007
:1000A0004080010204081020010204081020000012
:1000B0000008000201000003040700000000000027
:1000C0000000F50411241FBECFEFD8E0DEBFCDBF86
:1000D00021E0A8E1B1E001C01D92AE3BB207E1F71B
:1000E00011E0A0E0B1E0ECECFAE002C005900D9266
:1000F000A831B107D9F710E0C2E6D0E004C02197DB
:10010000FE010E945E05C136D107C9F70E949A031D
:100110000C9464050C940000AF92BF92CF92DF92D2
:10012000EF92FF920F931F93CF93DF936C017B01AC
:100130008B01040F151FEB015E01AE18BF08C0173D
:10014000D10759F06991D601ED91FC910190F081B0
:10015000E02DC6010995892B79F7C501DF91CF9173
:100160001F910F91FF90EF90DF90CF90BF90AF90D5
:100170000895FC01538D448D252F30E0842F90E0AD
:10018000821B930B541710F0CF9608950197089592
:10019000FC01918D828D981761F0A28DAE0FBF2F5B
:1001A000B11D5D968C91928D9F5F9F73928F90E0B1
:1001B00008958FEF9FEF0895FC01918D828D981720
:1001C00031F0828DE80FF11D858D90E008958FEF5D
:1001D0009FEF08952FB7F89480911D0190911E0113
:1001E000A0911F01B09120012FBF8093290190930E
:1001F0002A01A0932B01B0932C0181E291E00E948F
:10020000DC0097FF26C02FB7F89480911D019091D4
:100210001E01A0911F01B09120012FBF4091290123
:1002200050912A0160912B0170912C01841B950B38
:10023000A60BB70B40912501509126016091270133
:100240007091280184179507A607B707B0F28FEFC2
:100250009FEF0895FC01918D228D892F90E0805CA5
:100260009F4F821B91098F739927089581E291E036
:100270000E942A0121E0892B09F420E0822F0895B1
:1002800080E090E0892B29F00E94360181110C94C6
:1002900000000895FC01A48DA80FB92FB11DA35A29
:1002A000BF4F2C91848D90E001968F739927848F96
:1002B000A689B7892C93A089B1898C9183708064B9
:1002C0008C93938D848D981306C00288F389E02D5A
:1002D00080818F7D80830895EF92FF920F931F930B
:1002E000CF93DF93EC0181E0888F9B8D8C8D9813E9
:1002F0001AC0E889F989808185FF15C09FB7F894F5
:10030000EE89FF896083E889F98980818370806440
:1003100080839FBF81E090E0DF91CF911F910F918B
:10032000FF90EF900895F62E0B8D10E00F5F1F4F9A
:100330000F731127E02E8C8D8E110CC00FB607FCA9
:10034000FACFE889F989808185FFF5CFCE010E9437
:100350004A01F1CFEB8DEC0FFD2FF11DE35AFF4F5A
:10036000F0829FB7F8940B8FEA89FB8980818062C5
:10037000CFCFCF93DF93EC01888D8823B9F0AA8982
:10038000BB89E889F9898C9185FD03C0808186FD50
:100390000DC00FB607FCF7CF8C9185FFF2CF80819F
:1003A00085FFEDCFCE010E944A01E9CFDF91CF91C9
:1003B0000895833081F028F4813099F08230A9F0DB
:1003C00008958730A9F08830C9F08430B1F4809165
:1003D00080008F7D03C0809180008F7780938000A4
:1003E000089584B58F7784BD089584B58F7DFBCF44
:1003F0008091B0008F778093B00008958091B00015
:100400008F7DF9CF1F93CF93DF93282F30E0F90131
:10041000E255FF4F8491F901E656FF4FD491F9015F
:10042000EA57FF4FC491CC23A9F0162F81110E94E7
:10043000D901EC2FF0E0EE0FFF1FEE58FF4FA59112
:10044000B4918FB7F894EC91111108C0D095DE23C8
:10045000DC938FBFDF91CF911F910895DE2BF8CFF2
:10046000CF93DF9390E0FC01E656FF4F24918A572B
:100470009F4FFC0184918823D1F090E0880F991F51
:10048000FC01E859FF4FA591B491FC01EE58FF4FD4
:10049000C591D491623071F49FB7F8943C91822F4A
:1004A000809583238C93E8812E2B28839FBFDF9137
:1004B000CF9108958FB7F894EC912E2B2C938FBF8A
:1004C000F6CF3FB7F8948091190190911A01A0914D
:1004D0001B01B0911C0126B5A89B05C02F3F19F048
:1004E0000196A11DB11D3FBFBA2FA92F982F8827B4
:1004F000BC01CD01620F711D811D911D42E0660F8F
:10050000771F881F991F4A95D1F70895FC01019024
:100510000020E9F73197AF01481B590BBC0181E27C
:1005200091E00C948C008F929F92AF92BF920F93A8
:100530001F93CF93DF93CDB7DEB7A1970FB6F89493
:10054000DEBF0FBECDBF19A2423008F44AE08E01D3
:100550000F5D1F4F842E912CB12CA12CA50194016D
:100560000E943C05E62FB901CA01EA30F4F4E05DCF
:10057000D801EE938D01232B242B252B79F790E0C6
:1005800080E0109719F0CD010E948602A1960FB667
:10059000F894DEBF0FBECDBFDF91CF911F910F91B9
:1005A000BF90AF909F908F900895E95CE1CFCF927C
:1005B000DF92EF92FF92CF93DF936B017C016DE2AC
:1005C00081E291E00E946C01EC0166277727CB0164
:1005D0006C197D098E099F094AE00E9493028C0FD5
:1005E0009D1FDF91CF91FF90EF90DF90CF90089506
:1005F0001F920F920FB60F9211242F933F934F9398
:100600005F936F937F938F939F93AF93BF93EF937A
:10061000FF9381E291E00E944A01FF91EF91BF9127
:10062000AF919F918F917F916F915F914F913F918A
:100630002F910F900FBE0F901F9018951F920F9241
:100640000FB60F9211242F938F939F93EF93FF93E5
:10065000E0913101F09132018081E0913701F09118
:10066000380182FD1BC0908180913A018F5F8F73AA
:1006700020913B01821741F0E0913A01F0E0EF5DFB
:10068000FE4F958F80933A01FF91EF919F918F914B
:100690002F910F900FBE0F901F9018958081F4CF6F
:1006A0001F920F920FB60F9211242F933F938F93A7
:1006B0009F93AF93BF9380911D0190911E01A091D4
:1006C0001F01B09120013091180123E0230F2D3735
:1006D00058F50196A11DB11D2093180180931D01AD
:1006E00090931E01A0931F01B093200180911901E6
:1006F00090911A01A0911B01B0911C010196A11DBE
:10070000B11D8093190190931A01A0931B01B0931E
:100710001C01BF91AF919F918F913F912F910F90AD
:100720000FBE0F901F90189526E8230F0296A11D6B
:10073000B11DD2CF789484B5826084BD84B58160C8
:1007400084BD85B5826085BD85B5816085BD80919C
:100750006E00816080936E00109281008091810014
:10076000826080938100809181008160809381000C
:10077000809180008160809380008091B1008460CE
:100780008093B1008091B00081608093B00080912F
:100790007A00846080937A0080917A0082608093EE
:1007A0007A0080917A00816080937A0080917A004B
:1007B000806880937A001092C100E0913101F0913D
:1007C000320182E08083E0912D01F0912E011082B0
:1007D000E0912F01F09130018FEC8083109239016C
:1007E000E0913501F091360186E08083E09133019C
:1007F000F0913401808180618083E0913301F09138
:100800003401808188608083E0913301F09134016C
:10081000808180688083E0913301F0913401808190
:100820008F7D808361E08DE00E94300262E083E092
:100830000E94300261E088E00E9430020E94610262
:100840004B015C013AE0C32ED12CE12CF12C0E942B
:100850006102681979098A099B09683E734081051C
:100860009105A8F321E0C21AD108E108F10888EE49
:10087000880E83E0981EA11CB11CC114D104E104B0
:10088000F10429F760E088E00E940202C1EBD0E0A9
:100890000DE910E099E8E92E90E0F92E20E0C22E53
:1008A00020E0D22EFE018491F801A490F701B490CB
:1008B000BB2009F46FC081110E94D901EB2DF0E03B
:1008C000EE0FFF1FE458FF4FA591B4918C91A82221
:1008D00009F460C060E088E00E9402024AE061E042
:1008E00070E080E090E00E94930281E291E00E943B
:1008F0002A01892B09F46DC00E94EA00FC0197FDD2
:1009000064C08D32910521F0C0970A9708F055C058
:10091000812C912C5401712CE130F105D9F0ED328C
:10092000F10509F44FC0CF01C0970A9798F4AAE0E7
:10093000B0E0A50194010E9422054F01FF0FAA0813
:10094000BB08860E971EA81EB91EF0E38F1A9108E9
:10095000A108B10881E291E00E94C8000E94EA006B
:10096000FC01C0970A97C0F2E130F105A9F27720A7
:1009700041F0B094A09490948094811C911CA11C8F
:10098000B11C61E08A94892809F060E08DE00E9442
:100990000202ABCF61E088E00E9402024AE060E020
:1009A00070E0CB010E94930282E191E00E948602F6
:1009B00084E191E00E94860298CF81E291E00E945A
:1009C000C8009ACF77247394C5CF812C912C540101
:1009D000D8CFC114D10409F465CF0E943601882311
:1009E00009F460CF0E9400005DCFE1E2F1E01382E4
:1009F000128288EE93E0A0E0B0E084839583A68322
:100A0000B78384E091E09183808385EC90E09587C3
:100A1000848784EC90E09787868780EC90E0918BC8
:100A2000808B81EC90E0938B828B82EC90E0958BB5
:100A3000848B86EC90E0978B868B118E128E138EB2
:100A4000148E08950E942D05A59F900DB49F900DC2
:100A5000A49F800D911D11240895A29FB001B39F02
:100A6000C001A39F700D811D1124911DB29F700DB7
:100A7000811D1124911D0895A1E21A2EAA1BBB1BF2
:100A8000FD010DC0AA1FBB1FEE1FFF1FA217B3075A
:100A9000E407F50720F0A21BB30BE40BF50B661F70
:100AA000771F881F991F1A9469F760957095809534
:100AB00090959B01AC01BD01CF010895EE0FFF1F82
:100AC0000590F491E02D0994F894FFCF0000000008
:100AD0006C018C00B900B9012A01C800DC00690072
:040AE0000D0A0000FB
:107E0000112484B714BE81FFF0D085E080938100F7
:107E100082E08093C00088E18093C10086E0809377
:107E2000C20080E18093C4008EE0C9D0259A86E02C
:107E300020E33CEF91E0309385002093840096BBD3
:107E4000B09BFECF1D9AA8958150A9F7CC24DD24C4
:107E500088248394B5E0AB2EA1E19A2EF3E0BF2EE7
:107E6000A2D0813461F49FD0082FAFD0023811F036
:107E7000013811F484E001C083E08DD089C08234E0
:107E800011F484E103C0853419F485E0A6D080C0E4
:107E9000853579F488D0E82EFF2485D0082F10E0AE
:107EA000102F00270E291F29000F111F8ED06801E7
:107EB0006FC0863521F484E090D080E0DECF843638
:107EC00009F040C070D06FD0082F6DD080E0C81688
:107ED00080E7D80618F4F601B7BEE895C0E0D1E017
:107EE00062D089930C17E1F7F0E0CF16F0E7DF06D8
:107EF00018F0F601B7BEE89568D007B600FCFDCFD4
:107F0000A601A0E0B1E02C9130E011968C91119780
:107F100090E0982F8827822B932B1296FA010C0160
:107F200087BEE89511244E5F5F4FF1E0A038BF0790
:107F300051F7F601A7BEE89507B600FCFDCF97BE46
:107F4000E89526C08437B1F42ED02DD0F82E2BD052
:107F50003CD0F601EF2C8F010F5F1F4F84911BD097
:107F6000EA94F801C1F70894C11CD11CFA94CF0C13
:107F7000D11C0EC0853739F428D08EE10CD085E9AC
:107F80000AD08FE07ACF813511F488E018D01DD067
:107F900080E101D065CF982F8091C00085FFFCCF94
:107FA0009093C60008958091C00087FFFCCF809118
:107FB000C00084FD01C0A8958091C6000895E0E648
:107FC000F0E098E1908380830895EDDF803219F02E
:107FD00088E0F5DFFFCF84E1DECF1F93182FE3DFCA
:107FE0001150E9F7F2DF1F91089580E0E8DFEE27F6
:047FF000FF270994CA
:027FFE00040479
:00000001FF
