:100000000C9462000C948A000C948A000C948A0070
:100010000C948A000C948A000C948A000C948A0038
:100020000C948A000C948A000C948A000C948A0028
:100030000C948A000C948A000C948A000C948A0018
:100040000C9487030C948A000C9455030C942F0392
:100050000C948A000C948A000C948A000C948A00F8
:100060000C948A000C948A000000000024002700F1
:100070002A0000000000250028002B0000000000DE
:1000800023002600290004040404040404040202DA
:100090000202020203030303030301020408102007
:1000A0004080010204081020010204081020000012
:1000B0000008000201000003040700000000000027
:1000C0000000440511241FBECFEFD8E0DEBFCDBF36
:1000D00021E0A6E1B1E001C01D92AC3BB207E1F71F
:1000E00011E0A0E0B1E0EAE6FBE002C005900D926D
:1000F000A631B107D9F710E0C2E6D0E004C02197DD
:10010000FE010E94AD05C136D107C9F70E94D10397
:100110000C94B3050C940000AF92BF92CF92DF9283
:10012000EF92FF920F931F93CF93DF936C017B01AC
:100130008B01040F151FEB015E01AE18BF08C0173D
:10014000D10759F06991D601ED91FC910190F081B0
:10015000E02DC6010995892B79F7C501DF91CF9173
:100160001F910F91FF90EF90DF90CF90BF90AF90D5
:100170000895FC01538D448D252F30E0842F90E0AD
:10018000821B930B541710F0CF9608950197089592
:10019000FC01918D828D981761F0A28DAE0FBF2F5B
:1001A000B11D5D968C91928D9F5F9F73928F90E0B1
:1001B00008958FEF9FEF0895FC01918D828D981720
:1001C00031F0828DE80FF11D858D90E008958FEF5D
:1001D0009FEF08952FB7F89480911B0190911C0117
:1001E000A0911D01B0911E012FBF80932701909314
:1001F0002801A0932901B0932A018FE191E00E9488
:10020000DC0097FF26C02FB7F89480911B019091D6
:100210001C01A0911D01B0911E012FBF409127012B
:10022000509128016091290170912A01841B950B3E
:10023000A60BB70B40912301509124016091250139
:100240007091260184179507A607B707B0F28FEFC4
:100250009FEF0895FC01918D228D892F90E0805CA5
:100260009F4F821B91098F73992708958FE191E029
:100270000E942A0121E0892B09F420E0822F0895B1
:1002800080E090E0892B29F00E94360181110C94C6
:1002900000000895FC01A48DA80FB92FB11DA35A29
:1002A000BF4F2C91848D90E001968F739927848F96
:1002B000A689B7892C93A089B1898C9183708064B9
:1002C0008C93938D848D981306C00288F389E02D5A
:1002D00080818F7D80830895EF92FF920F931F930B
:1002E000CF93DF93EC0181E0888F9B8D8C8D9813E9
:1002F0001AC0E889F989808185FF15C09FB7F894F5
:10030000EE89FF896083E889F98980818370806440
:1003100080839FBF81E090E0DF91CF911F910F918B
:10032000FF90EF900895F62E0B8D10E00F5F1F4F9A
:100330000F731127E02E8C8D8E110CC00FB607FCA9
:10034000FACFE889F989808185FFF5CFCE010E9437
:100350004A01F1CFEB8DEC0FFD2FF11DE35AFF4F5A
:10036000F0829FB7F8940B8FEA89FB8980818062C5
:10037000CFCFCF93DF93EC01888D8823B9F0AA8982
:10038000BB89E889F9898C9185FD03C0808186FD50
:100390000DC00FB607FCF7CF8C9185FFF2CF80819F
:1003A00085FFEDCFCE010E944A01E9CFDF91CF91C9
:1003B0000895833081F028F4813099F08230A9F0DB
:1003C00008958730A9F08830C9F08430B1F4809165
:1003D00080008F7D03C0809180008F7780938000A4
:1003E000089584B58F7784BD089584B58F7DFBCF44
:1003F0008091B0008F778093B00008958091B00015
:100400008F7DF9CF1F93CF93DF93282F30E0F90131
:10041000E255FF4F8491F901E656FF4FD491F9015F
:10042000EA57FF4FC491CC23A9F0162F81110E94E7
:10043000D901EC2FF0E0EE0FFF1FEE58FF4FA59112
:10044000B4918FB7F894EC91111108C0D095DE23C8
:10045000DC938FBFDF91CF911F910895DE2BF8CFF2
:10046000CF93DF9390E0FC01E656FF4F24918A572B
:100470009F4FFC0184918823D1F090E0880F991F51
:10048000FC01E859FF4FA591B491FC01EE58FF4FD4
:10049000C591D491623071F49FB7F8943C91822F4A
:1004A000809583238C93E8812E2B28839FBFDF9137
:1004B000CF9108958FB7F894EC912E2B2C938FBF8A
:1004C000F6CF3FB7F8948091170190911801A09151
:1004D0001901B0911A0126B5A89B05C02F3F19F04C
:1004E0000196A11DB11D3FBFBA2FA92F982F8827B4
:1004F000BC01CD01620F711D811D911D42E0660F8F
:10050000771F881F991F4A95D1F708958F929F9260
:10051000AF92BF92CF92DF92EF92FF924B015C01BC
:100520000E9461026B017C010E9461026C197D09CD
:100530008E099F09683E734081059105A8F321E06B
:10054000821A9108A108B10888EEC80E83E0D81E6F
:10055000E11CF11C81149104A104B10429F7FF905E
:10056000EF90DF90CF90BF90AF909F908F900895C5
:100570008F929F92AF92BF920F931F93CF93DF936F
:10058000CDB7DEB7A1970FB6F894DEBF0FBECDBFD3
:1005900019A2423008F44AE08E010F5D1F4F842EED
:1005A000912CB12CA12CA50194010E948B05E62F62
:1005B000B901CA01EA3044F5E05DD801EE938D013E
:1005C000232B242B252B79F790E080E0109769F0FE
:1005D000FD0101900020E9F73197AF014A1B5B0B49
:1005E000BD018FE191E00E948C00A1960FB6F894B6
:1005F000DEBF0FBECDBFDF91CF911F910F91BF9096
:10060000AF909F908F900895E95CD7CFCF92DF9203
:10061000EF92FF92CF93DF936B017C016DE28FE14C
:1006200091E00E946C01EC0166277727CB016C19E1
:100630007D098E099F094AE00E94B8028C0F9D1F18
:10064000DF91CF91FF90EF90DF90CF90089542E03F
:1006500050E062E171E08FE191E00C948C001F9218
:100660000F920FB60F9211242F933F934F935F93E6
:100670006F937F938F939F93AF93BF93EF93FF936A
:100680008FE191E00E944A01FF91EF91BF91AF91FC
:100690009F918F917F916F915F914F913F912F919A
:1006A0000F900FBE0F901F9018951F920F920FB6CC
:1006B0000F9211242F938F939F93EF93FF93E091C9
:1006C0002F01F09130018081E0913501F0913601E8
:1006D00082FD1BC09081809138018F5F8F732091C4
:1006E0003901821741F0E0913801F0E0E15EFE4F00
:1006F000958F80933801FF91EF919F918F912F916A
:100700000F900FBE0F901F9018958081F4CF1F920D
:100710000F920FB60F9211242F933F938F939F93B5
:10072000AF93BF9380911B0190911C01A0911D017B
:10073000B0911E013091160123E0230F2D3758F59B
:100740000196A11DB11D2093160180931B0190936A
:100750001C01A0931D01B0931E018091170190917F
:100760001801A0911901B0911A010196A11DB11DA6
:100770008093170190931801A0931901B0931A0167
:10078000BF91AF919F918F913F912F910F900FBE8D
:100790000F901F90189526E8230F0296A11DB11DFA
:1007A000D2CF789484B5826084BD84B5816084BDE5
:1007B00085B5826085BD85B5816085BD80916E00FF
:1007C000816080936E001092810080918100826030
:1007D000809381008091810081608093810080916D
:1007E00080008160809380008091B100846080935C
:1007F000B1008091B00081608093B00080917A0058
:10080000846080937A0080917A00826080937A007D
:1008100080917A00816080937A0080917A0080686C
:1008200080937A001092C10061E08DE00E94300256
:10083000E0912F01F091300182E08083E0912B0163
:10084000F0912C011082E0912D01F0912E018FEC9E
:10085000808310923701E0913301F091340186E0FA
:100860008083E0913101F091320180818061808349
:10087000E0913101F0913201808188608083E091C4
:100880003101F0913201808180688083E0913101F3
:10089000F091320180818F7D808361E088E00E9449
:1008A000300262E083E00E9430026AE070E080E0A3
:1008B00090E00E94860261E088E00E940202C1EBA3
:1008C000D0E00DE910E099E8E92E90E0F92E20E063
:1008D000C22E20E0D22E60E088E00E9402022FB7F4
:1008E000F89480911B0190911C01A0911D01B09181
:1008F0001E012FBF8093270190932801A093290107
:10090000B0932A018FE191E00E94C80097FFB7C021
:100910002FB7F89480911B0190911C01A0911D01AB
:10092000B0911E012FBF4091270150912801609185
:10093000290170912A01841B950BA60BB70B4091DE
:1009400023015091240160912501709126018417A3
:100950009507A607B707B0F261E088E00E9402029F
:10096000FE018491F801A490F701B490BB2009F432
:1009700080C081110E94D901EB2DF0E0EE0FFF1F26
:10098000E458FF4FA591B4918C918A2109F471C06C
:100990004AE060E070E0CB010E94B8020E942703A9
:1009A00062E370E080E090E00E948602C114D1040E
:1009B00009F491CF0E943601882309F48CCF0E945C
:1009C000000089CF8FE191E00E94C8000E94EA00F8
:1009D000FC0197FD4AC08D32910519F0C0970A9726
:1009E00088F7812C912C5401712CE130F105D1F064
:1009F000ED32F105B9F1CF01C0970A9798F4AAE05A
:100A0000B0E0A50194010E9471054F01FF0FAA08F3
:100A1000BB08860E971EA81EB91E80E3881A91088F
:100A2000A108B1088FE191E00E94C8000E94EA008D
:100A3000FC01C0970A97C8F2E130F105B1F27720C6
:100A400041F0B094A09490948094811C911CA11CBE
:100A5000B11C8A94892809F07FCF61E08DE00E9463
:100A600002027ACF77247394DDCF812C912C54012C
:100A7000F0CF4AE061E070E080E090E08DCF893611
:100A8000910509F02CCFA2CFEFE1F1E013821282A1
:100A900088EE93E0A0E0B0E084839583A683B783DB
:100AA00084E091E09183808385EC90E09587848752
:100AB00084EC90E09787868780EC90E0918B808B28
:100AC00081EC90E0938B828B82EC90E0958B848B11
:100AD00086EC90E0978B868B118E128E138E148E7F
:100AE00008950E947C05A59F900DB49F900DA49F32
:100AF000800D911D11240895A29FB001B39FC001E4
:100B0000A39F700D811D1124911DB29F700D811D39
:100B10001124911D0895A1E21A2EAA1BBB1BFD01F1
:100B20000DC0AA1FBB1FEE1FFF1FA217B307E407CC
:100B3000F50720F0A21BB30BE40BF50B661F771F24
:100B4000881F991F1A9469F7609570958095909504
:100B50009B01AC01BD01CF010895EE0FFF1F059071
:0A0B6000F491E02D0994F894FFCF02
:100B6A00000000006C018C00B900B9012A01C8001C
:060B7A00DC000D0A000082
:00000001FF
