:100000000C94DD000C9405010C9405010C94050181
:100010000C9405010C9405010C9405010C94050148
:100020000C9405010C94880D0C94C91A0C94761943
:100030000C9405010C9405010C9405010C94050128
:100040000C9405010C9405010C9405010C94050118
:100050000C9405010C9405010C9405010C944611B7
:100060000C9405010C948B150C94BD150C94050192
:100070000C9405010C9405010C9405010C940501E8
:100080000C9405010C9405010C9405010C940501D8
:100090000C9405010C9405010C9405010C940501C8
:1000A0000C9405010C9405010C94050172756E2DDC
:1000B0006272696467650A000A000A0000000002B3
:1000C00000090F0000030401000C000004080201F5
:1000D000104080401020408040800804020101024E
:1000E00010204080108010204040040404040403C9
:1000F00004050202020204030202020206060606C8
:100100000606040402020204000000002300260088
:1001100029002C002F0000000000250028002B00E3
:100120002E00310000000000240027002A002D00CE
:100130003000080B00020202000009040000010266
:10014000020000052400100105240101010424021D
:10015000060524060001070581031000400904017B
:1001600000020A00000007050202400000070583A4
:100170000240000012010002EF0201408D0E01ABAF
:100180000001010203014D6564696154656B204CF7
:10019000616273004C696E6B497420536D617274B7
:1001A00020373638382044756F0004030904830271
:1001B0003109410B4214ED15BE0211241FBECFEFD1
:1001C000DAE0DEBFCDBF11E0A0E0B1E0E4EEFEE397
:1001D00002C005900D92A23FB107D9F723E0A2EF2C
:1001E000B1E001C01D92A53CB207E1F710E0CCEDF3
:1001F000D0E004C02197FE010E94FC1CC73DD1073E
:10020000C9F70E94FB1B0C94651F0C9400008EE63E
:1002100092E00E94320B62E087E10E94A51262E048
:1002200087E10E94A51262E086E10E94A51262E0C9
:1002300085E10E94A51262E084E10E94A51226E0F9
:1002400040E950ED63E070E080916C0290916D02A6
:100250000E942F1583E692E00E943C0840E855E298
:1002600060E070E08DEB92E00E943C1441E06FE0B2
:1002700083E092E00E945F0B41E06FE080E092E05B
:100280000E945F0B41E06FE08DEF91E00E945F0BF9
:1002900041E06FE08AEF91E00E945F0B20E044E0D4
:1002A00066EF71E083E092E00E94EC0B20E044E016
:1002B00066EF71E080E092E00E94EC0B20E044E009
:1002C00066EF71E08DEF91E00E94EC0B20E044E0DE
:1002D00066EF71E08AEF91E00E94EC0B40E855E296
:1002E00060E070E084E492E00E94840E21E041E04E
:1002F00064E472E08EE192E00E940E1144EF51E05E
:1003000060E070E08EE192E00E942C0F6EE18EE1E1
:1003100092E00E94F61064E08EE192E00E94FB10F1
:1003200062E08EE192E00C9400118EE192E00E9476
:10033000F20F8823D1F38EE192E00E94420F8530C4
:1003400021F48EE192E00E943E116CED75E080E0B8
:1003500090E00C94C111AF92BF92CF92DF92FF92C6
:100360000F931F93CF93DF93F82EFB01CB0164E62D
:1003700070E00E94A71C5C012AE030E0CB01B901CB
:100380000E94A71C8C01CF01B9010E94A71C6C011F
:10039000CB01B9010E94A71CEC0146E961E08EE1A6
:1003A00092E00E9441110E94950160ED77E080E0AB
:1003B00090E00E94C11145E161E08EE192E00E946F
:1003C00041110E9495016091080170910901072E69
:1003D000000C880B990B0E94C1110115110541F108
:1003E000A8014C595F4F61E08EE192E00E944111FB
:1003F0000E94950160910A0170910B01072E000C7B
:10040000880B990B0E94C111AB2891F046E161E085
:100410008EE192E00E9441110E94950160910A01D3
:1004200070910B01072E000C880B990B0E94C111D3
:1004300081E0C816D10421F44FE6C130D10561F145
:10044000C114D10409F45CC04C2D61E08EE192E04E
:100450000E944111C130D10509F04CC060E273E047
:1004600080E090E00E94C111609106017091070147
:10047000072E000C880B990B0E94C111C130D105C9
:1004800041F046E161E08EE192E00E9441110E945C
:100490009501AE01465F5F4F61E08EE192E00E9400
:1004A00041110E94950147E161E08EE192E00E94D6
:1004B00041110E9495016091080170910901072E78
:1004C000000C880B990B0E94C1114F2D61E08EE149
:1004D00092E00E94411168E572E080E090E0DF91D7
:1004E000CF911F910F91FF90DF90CF90BF90AF9071
:1004F0000C94C1110E949501209709F0BFCFD3CF72
:10050000209789F2C6CFCF93DF9320E04FE06EE0D3
:1005100084E492E00E94590ECEE1D2E084EF91E0B3
:10052000A0E0B0E08E839F83A887B9878AE0EFE1DF
:10053000F1E0A2E3B2E001900D928A95E1F71E8E00
:1005400082E08F8F1CA21DA243E062E083E092E074
:100550000E94480B45E064E080E092E00E94480B76
:1005600047E066E08DEF91E00E94480B49E068E0CB
:100570008AEF91E0DF91CF910C94480B84E492E0F4
:100580000C94000ECF93DF93CDB7DEB7CB51D240A2
:100590000FB6F894DEBF0FBECDBF312C212C912CAD
:1005A000812CB12CA12CD12CC12C84E6482E512CAD
:1005B0009AE0692E712C20E046E351E06EE672E08D
:1005C000CE0187599E4F0E94340BCE0187599E4F12
:1005D0000E946E0A882329F1F12CCE0187599E4F83
:1005E0000E94E20A892BC1F0CE0187599E4F0E94DA
:1005F000B70AE7E1F2E0EC0FFD1FEF0DF11D80837C
:100600001182F394CE01895E9D4F0E94F81E909353
:100610001D0280931C02E1CFCE0187599E4F0E949C
:10062000EC0AE0901C02F0901D02EC14FD0411F0A5
:100630001092F50188EEE81683E0F8061CF4E11448
:10064000F10429F481E08093F501F12CE12C20E004
:1006500044E066EF71E083E092E00E94EC0B00E082
:1006600024E040E0B70183E092E00E94920C809188
:10067000F501811107C0B70181E00E94AB0181E063
:100680008093F50120E048E451E06EE672E0CE018F
:10069000815F9E4F0E94340BCE01815F9E4F0E946E
:1006A0006E0A882329F1D12CCE01815F9E4F0E94D2
:1006B000E20A892BC1F0CE01815F9E4F0E94B70AEA
:1006C000E7E1F2E0EC0FFD1FED0DF11D80831182DB
:1006D000D394CE01895E9D4F0E94F81E90931B0219
:1006E00080931A02E1CFCE01815F9E4F0E94EC0AF7
:1006F000C0901A02D0901B02CA14DB0411F01092B1
:10070000F40188EEC81683E0D8061CF4C114D104A5
:1007100029F481E08093F401D12CC12C20E044E045
:1007200066EF71E080E092E00E94EC0B00E024E0D4
:1007300040E0B60180E092E00E94920C8091F401CA
:10074000811107C0B60182E00E94AB0181E0809375
:10075000F40120E04EE551E06EE672E0CE018B54EC
:100760009F4F0E94340BCE018B549F4F0E946E0A04
:10077000882329F1B12CCE018B549F4F0E94E20AAD
:10078000892BC1F0CE018B549F4F0E94B70AE7E13D
:10079000F2E0EC0FFD1FEB0DF11D80831182B3948D
:1007A000CE01895E9D4F0E94F81E9093190280939E
:1007B0001802E1CFCE018B549F4F0E94EC0AA0900B
:1007C0001802B0901902A814B90411F01092F301A4
:1007D00088EEA81683E0B8061CF4A114B10429F42D
:1007E00081E08093F301B12CA12C20E044E066EF7E
:1007F00071E08DEF91E00E94EC0B00E024E040E01E
:10080000B5018DEF91E00E94920C8091F30181116E
:100810000DC0B50183E00E94AB0164E771E08DEB90
:1008200092E00E947A1681E08093F30120E049E78C
:1008300051E06EE672E0CE01855A9F4F0E94340B64
:10084000CE01855A9F4F0E946E0A882329F1912C70
:10085000CE01855A9F4F0E94E20A892BC1F0CE013A
:10086000855A9F4F0E94B70AE7E1F2E0EC0FFD1FA7
:10087000E90DF11D808311829394CE01895E9D4F15
:100880000E94F81E9093170280931602E1CFCE01CA
:10089000855A9F4F0E94EC0A809016029090170292
:1008A0008214930411F01092F20188EE881683E00E
:1008B00098061CF48114910429F481E08093F201DC
:1008C000912C812C20E044E066EF71E08AEF91E00A
:1008D0000E94EC0B00E024E040E0B4018AEF91E0DC
:1008E0000E94920C8091F201811107C0B40184E052
:1008F0000E94AB0181E08093F20182E1E6E3F1E046
:10090000DE01AB5FBD4F01900D928A95E1F787E163
:100910000E940F13909315028093140220911202EB
:10092000309113028217930709F447C0892BE9F528
:100930008FEFE81AF80A21E0AE014B5F5D4F6EE6DB
:1009400072E0CE0101960E94340BC701B2010E94F1
:10095000A71C605DC75FDD4F6883C950D24010920D
:10096000F501C701B3010E94A71C282FCB01B301D9
:100970000E94A71C805DC65FDD4F8883CA50D240AD
:10098000205DC55FDD4F2883CB50D2404AE050E068
:10099000B701CE0101960E942817CE0101960E9450
:1009A000EC0ACE0101960E94210B809114029091D5
:1009B0001502909313028093120286E1E8E4F1E0BD
:1009C000DE01A151BE4F01900D928A95E1F786E1BB
:1009D0000E940F13909311028093100220910E0237
:1009E00030910F028217930709F447C0892BE9F56C
:1009F0008FEFC81AD80A1092F40121E0AE014151DC
:100A00005E4F6EE672E0CE0101960E94340BC60185
:100A1000B2010E94A71C605DCD50DE4F6883C35FAA
:100A2000D140C601B3010E94A71C282FCB01B301FE
:100A30000E94A71C805DCC50DE4F8883C45FD140EC
:100A4000205DCB50DE4F2883C55FD1404AE050E0A7
:100A5000B601CE0101960E942817CE0101960E9490
:100A6000EC0ACE0101960E94210B80911002909118
:100A7000110290930F0280930E0286E1EEE5F1E001
:100A8000DE01A752BE4F01900D928A95E1F785E1F4
:100A90000E940F1390930D0280930C0220910A0282
:100AA00030910B028217930709F447C0892BE9F5AF
:100AB0008FEFA81AB80A1092F30121E0AE01475255
:100AC0005E4F6EE672E0CE0101960E94340BC501C6
:100AD000B2010E94A71C605DC352DE4F6883CD5DEA
:100AE000D140C501B3010E94A71C282FCB01B3013F
:100AF0000E94A71C805DC252DE4F8883CE5DD1402C
:100B0000205DC152DE4F2883CF5DD1404AE050E0E6
:100B1000B501CE0101960E942817CE0101960E94D0
:100B2000EC0ACE0101960E94210B80910C0290915B
:100B30000D0290930B0280930A0286E1E9E7F1E04F
:100B4000DE01AD53BE4F01900D928A95E1F784E12D
:100B50000E940F13909309028093080220910602CD
:100B6000309107028217930709F447C0892BE9F5F2
:100B70008FEF881A980A1092F20121E0AE014D53CE
:100B80005E4F6EE672E0CE0101960E94340BC40106
:100B9000B2010E94A71C605DC953DE4F6883C75C29
:100BA000D140C401B3010E94A71C282FCB01B3017F
:100BB0000E94A71C805DC853DE4F8883C85CD1406B
:100BC000205DC753DE4F2883C95CD1404AE050E026
:100BD000B401CE0101960E942817CE0101960E9411
:100BE000EC0ACE0101960E94210B8091080290919F
:100BF0000902909307028093060264E670E080E0A9
:100C000090E00E94C111CE01855A9F4F0E94210B96
:100C1000CE018B549F4F0E94210BCE01815F9E4FCE
:100C20000E94210BCE0187599E4F0E94210B140177
:100C3000450156016701BFCCFC0123813481262781
:100C4000022E2295207F2025032E322F22952F70F1
:100C50000226269532272327220F220F220F202536
:100C6000348323830895CF93DF93EC018D819E819C
:100C70006C81DC01ED91FC910190F081E02D0995F2
:100C80008D819E81DC01ED91FC910190F081E02D40
:100C90006B81DF91CF9109948F929F92AF92BF9217
:100CA000CF92DF92EF92FF92CF93DF93EC016B0133
:100CB0000E9490114B015C01F12CE12C8D819E81F1
:100CC000DC01ED91FC910284F385E02D099597FFFD
:100CD0000DC00E949011681979098A099B096C1549
:100CE0007D058E059F0550F38FEF9FEFDF91CF912C
:100CF000FF90EF90DF90CF90BF90AF909F908F903C
:100D00000895CF93DF93EC018D819E81DC01ED91FD
:100D1000FC910084F185E02D09951816190654F40C
:100D20008D819E81DC01ED91FC910284F385E02DA3
:100D30000995EACFDF91CF9108952F923F924F927C
:100D40005F926F927F928F929F92AF92BF92CF925B
:100D5000DF92EF92FF920F931F93CF93DF93CDB764
:100D6000DEB72E970FB6F894DEBF0FBECDBF3C01A5
:100D70001B0138872F832701C60198012C0D3D1DCB
:100D8000B901640F751F7B836A837B817C83198221
:100D9000CC24CA94DC2CDA01A20DB31DBA87A98732
:100DA000EF81F885E00FF11FFC87EB879C012E0D8A
:100DB0003F1D3E872D87D30118968C91B981B817B6
:100DC00008F034C1F301D482C38285819681DC01AD
:100DD000ED91FC910190F081E02D6FEF09956FEF9F
:100DE000C3010E941C06F30185819681DC01ED910F
:100DF000FC910190F081E02DD3016C910995F301F4
:100E00006081C3010E941C06D30115968D919C91AF
:100E1000DC01ED91FC910190F081E02D6C81099550
:100E20006C81C3010E941C06F30185819681DC015F
:100E3000ED91FC910190F081E02D6A8109956A8124
:100E4000C3010E941C068101E985FA850E171F0760
:100E500019F50F811885EB85FC85E017F10789F5F9
:100E60008201ED85FE85E017F10709F43FC0D3014B
:100E700015968D919C91F80161918F01DC01ED91A6
:100E8000FC910190F081E02D0995F8013197608186
:100E9000C3010E941C06E5CFD30115968D919C914C
:100EA000F80161918F01DC01ED91FC910190F081DD
:100EB000E02D0995F80131976081C3010E941C065D
:100EC000C3CFD30115968D919C91F80161918F014B
:100ED000DC01ED91FC910190F081E02D0995F80184
:100EE00031976081C3010E941C06B5CFC3010E94E7
:100EF000330668EC70E0C3010E944C068F3F9105F9
:100F000009F087C0F301D482C3826FEFC3010E944E
:100F10001C0665E070E0C3010E944C06D3016C9191
:100F20006817190609F075C0C3010E941C066AE023
:100F300070E0C3010E944C067C0197FD6AC0682FD7
:100F4000C3010E941C066AE070E0C3010E944C06C7
:100F50008C0197FD5EC0682FC3010E941C06EE82C3
:100F60001D82ED81FE810E0F1F1FF12CE12C65E02B
:100F700070E0C301E016F10699F0E814F90481F07D
:100F80000E944C0697FD08C0F501EE0DFF1D808301
:100F9000682FC3010E941C06FFEFEF1AFF0AE7CF7C
:100FA0000E944C067C0197FD34C065E070E0C301EF
:100FB0000E944C0697FD2DC0FE2CEE248E0D9F1D29
:100FC000D30113962D913C9114978217930709F53D
:100FD0008C918F5F8C93C8018016910608F4C40130
:100FE0002E960FB6F894DEBF0FBECDBFDF91CF9126
:100FF0001F910F91FF90EF90DF90CF90BF90AF9037
:101000009F908F907F906F905F904F903F902F9028
:101010000895B981BF5FB98364E670E080E090E035
:101020000E94C111C3010E948106C5CE8FEF9FEFC0
:10103000D7CF8F929F92AF92BF92CF92DF92EF92D3
:10104000FF920F931F93912C812CB12CA12CD12CAA
:10105000C12CF12CE12C10E000E030E020E00E94F7
:101060009D061F910F91FF90EF90DF90CF90BF9062
:10107000AF909F908F9008954F925F926F927F9262
:101080008F929F92AF92BF92CF92DF92EF92FF9298
:101090000F931F93CF93DF93CDB7DEB72E970FB685
:1010A000F894DEBF0FBECDBFDC0117962C911797C9
:1010B0002111BAC03C0181E0FD018783C3010E9478
:1010C000810668EE73E080E090E00E94C111D301D8
:1010D00015968D919C91DC01ED91FC910084F18538
:1010E000E02D0995181619064CF35524539492E3F4
:1010F000492E85E0E9E2F1E0DE01169601900D92BD
:101100008A95E1F7F301508645E050E0BE016A5F41
:101110007F4FC3010E94190863E0D30115968D919A
:101120009C910E9482166AEF70E080E090E00E943D
:10113000C1116AEB70E0F301858196810E94561619
:101140006AEF70E080E090E00E94C11168EB70E00F
:10115000D30115968D919C910E94561664EF71E013
:1011600080E090E00E94C1116CEA70E0F30185819B
:1011700096810E94561664EF71E080E090E00E9434
:10118000C111C3010E94810685E0EEE2F1E0DE01BB
:10119000119601900D928A95E1F7D30118964C9221
:1011A00084E0882E912CFE013B965F01D12CC12C4E
:1011B000F12CE12C10E000E030E020E045E050E0D0
:1011C000BE016F5F7F4FC3010E949D068F3F98074E
:1011D00039F468EE73E080E090E00E94C11189CF9D
:1011E0002B852111FFCF0497B1F52C852053330BAC
:1011F00044E6429FC001439F900D11242D853AE0A3
:10120000239F800D911D1124805E91402E852053D7
:10121000330B820F931FD30112969C938E931197D9
:1012200082E3D30118968C932E960FB6F894DEBF06
:101230000FBECDBFDF91CF911F910F91FF90EF9027
:10124000DF90CF90BF90AF909F908F907F906F90E6
:101250005F904F90089584E690E0F301928381833C
:10126000DFCFE3E6F2E010828EE093E096838583A1
:101270001782108692878187089590E080E0089514
:10128000CF93DF931F92CDB7DEB76983DC01ED9179
:10129000FC910280F381E02D41E050E0BE016F5FE0
:1012A0007F4F09950F90DF91CF91089508956F9228
:1012B0007F928F929F92AF92BF92CF92DF92EF92E6
:1012C000FF920F931F93CF93DF9300D01F92CDB760
:1012D000DEB79B013A01FC01E85AFF4F40814F3FC6
:1012E000C1F147E64983319640814A83805B9F4F35
:1012F00088248394912CAE014D5F5F4F5A01D12C0D
:10130000C12CF12CE12C830142E050E0BE016F5F63
:101310007F4FFC01808191810E949D068B818823F3
:1013200029F0682E712C719461947108C3010F909B
:101330000F900F90DF91CF911F910F91FF90EF9041
:10134000DF90CF90BF90AF909F908F907F906F90E5
:1013500008958FEF9FEFEBCF8F929F92AF92BF9246
:10136000CF92DF92EF92FF920F931F9348015901A2
:10137000D12CC12CF12CE12C10E000E030E020E079
:101380000E949D061F910F91FF90EF90DF90CF90EC
:10139000BF90AF909F908F9008952F923F924F9261
:1013A0005F926F927F928F929F92AF92BF92CF92F5
:1013B000DF92EF92FF920F931F93CF93DF9300D0B2
:1013C00000D000D01F92CDB7DEB73C018B01D42EE8
:1013D000DC0113961C921E92129788EE93E0A0E017
:1013E000B0E0F30184839583A683B78383E991E01A
:1013F000918380831301F0E52F0E311CD1012D93D1
:101400003C937301B2E5EB0EF11C61EF71E0C70193
:101410000E94CC1B2301E8E54E0E511CD201DC9248
:10142000B801C7010E94EB1B8091330190913401F8
:10143000A091350189839A83AB8386E48E83D201A0
:10144000EC91EC0FFD2FF11D81818F8381E090E005
:10145000F30197878687EA5AFF4F00811181D701F0
:101460002D913C9182E0882E912CFE0134965F01F3
:10147000D12CC12CF12CE12C42E050E0BE016A5F7E
:101480007F4FD1018D919C910E949D068C81882374
:10149000E1F08FEFF201808327960FB6F894DEBF5C
:1014A0000FBECDBFDF91CF911F910F91FF90EF90B5
:1014B000DF90CF90BF90AF909F908F907F906F9074
:1014C0005F904F903F902F900895F301E75AFF4FA0
:1014D0008D818083D3011C961C92DECFFC01E85ADB
:1014E000FF4F81E090819F3F09F480E00895EF92E3
:1014F000FF920F931F93CF93DF9300D01F92CDB72E
:10150000DEB7FC012485211121C07C01158687E40A
:1015100089838FE38B83E75AFF4F80818A8397010A
:10152000205F3F4F399700E410E043E050E0BE01F8
:101530006F5F7F4F808191810E94AC099C01215097
:1015400031092E3F3F4F60F0F70114860F900F9046
:101550000F90DF91CF911F910F91FF90EF90089521
:10156000F70195859F5F958781508487EFCFCF9353
:10157000DF93EC010E94770A8C85882369F0815003
:101580008C878D8591E0980F9D87C80FD11D888924
:1015900090E0DF91CF9108958FEF9FEFFACFCF9337
:1015A000DF93EC010E94770A8C85882341F08D85BA
:1015B000C80FD11D888990E0DF91CF9108958FEFFA
:1015C0009FEFFACFCF93DF93EC010E94770A8C85CF
:1015D00090E0DF91CF910895EF92FF920F931F93C8
:1015E000CF93DF9300D01F92CDB7DEB77C0128E503
:1015F000E20EF11CF70120812F3FC9F026E6298376
:10160000319620812A83805B9F4F01E010E09E018C
:101610002D5F3F4F42E050E0BE016F5F7F4FFC0106
:10162000808191810E94AC098FEFF70180830F9038
:101630000F900F90DF91CF911F910F91FF90EF903E
:101640000895CF93DF93EC0183E991E09983888338
:10165000CE010E94EC0ACE018E5A9F4FDF91CF91AE
:101660000C945A1B81E00895CF93DF93EC01BA01EB
:10167000422F23E632E00E94CD09CE01DF91CF91C7
:10168000089583E692E090936F0280936E0208952E
:10169000CF93DF93EC01862F6883498360E00E943B
:1016A000A51260E089810E94A51260E088810E94F5
:1016B000E11260E08981DF91CF910C94E112FC018D
:1016C000677090E0411198E0692B6283089561E0B2
:1016D000FC0181810E94A51282E390E00C94FA1132
:1016E000CF93DF93EC0161E089810E94A51282E330
:1016F00090E00E94FA1160E088810E94A51282E3C6
:1017000090E00E94FA1160E089810E94A51282E3B4
:1017100090E0DF91CF910C94FA11EF92FF920F932A
:101720001F93CF93DF93EC01062F18E061E08881CF
:101730000E94A51282E390E00E94FA11E02EF12CA3
:1017400060E000FF61E089810E94A51282E390E0E1
:101750000E94FA1160E088810E94A51282E390E065
:101760000E94FA11F594E7940E2D1150F9F661E0FC
:1017700088810E94A51260E089810E94A51282E3FF
:1017800090E00E94FA1160E088810E94A51282E335
:1017900090E00E94FA1189810E940F13182F811185
:1017A00004C061E089810E94A51282E390E00E945A
:1017B000FA1161E088810E94A51282E390E00E9404
:1017C000FA1181E0111101C080E0DF91CF911F91EA
:1017D0000F91FF90EF900895DF92EF92FF920F9399
:1017E0001F93CF93DF93EC01D62EF72EE42E122F0A
:1017F0000E94670B60E4CE010E948D0BCE010E9417
:10180000700BCE010E94670B612F63706054CE0194
:101810000E948D0B0D2D1F2DE00EF12EF11C0E15CB
:101820001F0539F0F80161918F01CE010E948D0BE7
:10183000F6CFCE010E94700BCE010E94670B6A8129
:101840006F706058CE010E948D0BCE01DF91CF9159
:101850001F910F91FF90EF90DF900C94700B6F929F
:101860007F928F929F92AF92BF92CF92DF92EF9230
:101870000F931F93CF93DF9300D000D0CDB7DEB787
:101880004C01FB01342F402F89EAA82E81E0B82EAD
:10189000CE0101966C013C0111E0D5017E916E9163
:1018A0005D01CF010E94A71C6115710559F421113A
:1018B00007C0112329F0862D8C1950E0833051F494
:1018C0005FE308C06F70E62FF0E0E755FE4F5081F0
:1018D000FC0110E0832F8078582B330FD3015D93E8
:1018E0003D01B1EAAB16B1E0BB06B9F664E070E0C9
:1018F000641B71096C0D7D1D2E2DC4010E94EC0B23
:101900000F900F900F900F90DF91CF911F910F913B
:10191000EF90DF90CF90BF90AF909F908F907F908F
:101920006F900895EF920F93E02E022F242F40E046
:101930000E942F0C0F91EF9008952091B2023091E8
:10194000B30228173907B9F490917002809171029F
:10195000981789F0E0917002F0E0EE58FD4F808119
:101960002091700230E02F5F3F4F2F733327209379
:10197000700290E008958FEF9FEF0895EF92FF922D
:101980000F931F93CF93DF93DC015C96ED90FC9057
:101990005D97E114F10479F481E090E013969C9353
:1019A0008E93129790E080E0DF91CF911F910F917D
:1019B000FF90EF9008955196ED91FC9152975096BB
:1019C0008C915097982F90950FB75E962C915E97BB
:1019D000122F127021FD6095F8942081112319F1C6
:1019E000282B2083E7012197F1F728E0462F50E0CC
:1019F000308160FF1AC0382B3083E7012197F1F75F
:101A0000BA0175956795215089F7112381F080817E
:101A1000892380830FBF5C968D919C910197F1F78C
:101A200081E090E0C1CF2923DCCF3923E5CF90813D
:101A3000892BEFCF08952091B2023091B30228177D
:101A4000390771F49091700280917102981741F0FA
:101A5000E0917002F0E0EE58FD4F808190E0089533
:101A60008FEF9FEF08952091B2023091B3022817B3
:101A7000390761F4809171022091700290E0805CDE
:101A80009F4F821B91098F739927089590E080E002
:101A90000895E091B202F091B302E817F90769F4F2
:101AA000A389B4899C918589809589238C93109210
:101AB000B3021092B20281E0089580E00895CF93BE
:101AC000DF93EC018A8D9B8D892B01F18091B2020D
:101AD0009091B3028C179D07C9F0009711F00E94F6
:101AE000490D8E8D8E7F8E8F109271021092700232
:101AF000D093B302C093B202EB89FC8980819D89A7
:101B0000892B808381E0DF91CF91089580E0FBCF26
:101B10001F920F920FB60F9211242F933F934F9362
:101B20005F936F937F938F939F93AF93BF93EF9345
:101B3000FF93E091B202F091B302309749F0A6858D
:101B4000B7858585968D91FF14C09C918923A1F45A
:101B5000FF91EF91BF91AF919F918F917F916F9185
:101B60005F914F913F912F910F900FBE0F901F905B
:101B700018959C91892361F7A389B4899C918589E3
:101B8000809589238C93868997890197F1F7608DD9
:101B9000718DA685B785558538E020E0CB0101978A
:101BA000F1F7822F90E095958795282F4C9145234A
:101BB00009F02068315091F7868D81FD2095809144
:101BC000710290E001968F73992730917002381757
:101BD00099F0A0917102B0E0AE58BD4F2C93809364
:101BE0007102828D938D0197F1F7A389B4898C914D
:101BF0009589892B8C93ACCF868D8160868FF1CFB0
:101C00002DEB31E0FC01318320830C94490D1F93AF
:101C1000CF93DF93EC01162F6E8D6695617081E096
:101C20006827812F0E94E11261E0812F0E94A51296
:101C3000812F90E0FC01E453FF4FE491E88BFC011D
:101C4000E651FF4FE491F0E0EE0FFF1FEA5EFE4F1A
:101C5000859194919A8B898BDF91CF911F910895F3
:101C60001F93CF93DF93EC01162F60E0812F0E942A
:101C7000A5128E8D81FD04C061E0812F0E94E112CA
:101C80001C87812F90E0FC01E453FF4FE491ED8726
:101C9000FC01E651FF4FE491F0E0EE0FFF1FE85F1B
:101CA000FE4F859194919F878E87DF91CF911F91F1
:101CB00008951F93CF93DF93EC01162F1B821A8296
:101CC00088EE93E0A0E0B0E08C839D83AE83BF8379
:101CD0008DEB91E0998388831F8A1E8A198E188E56
:101CE0001B8E1A8E1D8E1C8E8E8D8E7F20FB81F991
:101CF0008E8F642FCE010E94070E612FCE01DF91DF
:101D0000CF911F910C94300ECF93DF93EC019A0189
:101D1000AB011B8E1A8E198E188E1F8A1E8A60E8E0
:101D200074E88EE190E00E94DD1CF901C90103977F
:101D30002430310510F481E090E09D8F8C8F8C85EC
:101D400068EF680F643048F092EF980F943028F0F5
:101D500096EE980F933008F05FC0D901B695A7951D
:101D6000A431B10508F45DC05397BF8BAE8B369795
:101D700008F45AC0F9013597F98FE88FF901EE0F91
:101D8000FF1F2E0F3F1F36952795369527952D302F
:101D9000310508F44CC02C5031093B8F2A8F643038
:101DA00050F092EF980F943030F096EE980FF0E0EC
:101DB000E0E0933010F4E8E6F0E09081643048F021
:101DC00022EF280F243028F08A51F0E0E0E0833041
:101DD00010F4E8E6F0E0916090832C8538EF320F44
:101DE000343040F082EF820F843020F086EE820F94
:101DF000833000F58BE690E09C8B8B8B3430E8F4DD
:101E00002450330B81E001C0880F2A95EAF78D8BAF
:101E10008C8D9D8D0197F1F7CE01DF91CF910C94C0
:101E20005F0DA1E0B0E0A1CFE1E0F0E0A5CF21E0BF
:101E300030E0B3CF90E080E0DFCF88E02E3039F3A0
:101E400082E02F3021F384E0203109F381E0213159
:101E5000F1F22651330BD6CFFC01468357836087BE
:101E600071870895FB013196695F7F4F90E080E0B4
:101E70002191820F911DE617F707D1F79195819572
:101E800091090895FC0114A280A10895DC011D961A
:101E9000EC911D97E13419F495961C920895919652
:101EA000EC9391971F968C911F97282F30E0322F3B
:101EB000222750968C915097820F932F911D9396C5
:101EC0009C938E939297EA53E63108F064C0F0E059
:101ED000E459F04F0C94FC1CA50FB30FC60F820FF2
:101EE000C60F8D0FC10FCB0FC60FC60FC60FC60F83
:101EF000C60FC60FC60FC60FCB0FC60FC60FC60F35
:101F0000C60FC60F5E961C925E9785E090968C93E6
:101F1000909781E094968C93089580FF05C05E961B
:101F20001C925E9789E0F2CF81FF05C05E961C92FD
:101F30005E9784E0EBCF83709927892B09F4AECFAD
:101F40005E961C925E978AE0E1CF80FF05C05E96A8
:101F50001C925E9787E0DACF81FFA0CF5E961C923D
:101F60005E9782E0D3CF80FF05C05E961C925E979D
:101F700088E0CCCF81FF92CF5E961C925E9783E083
:101F8000C5CF5E961C925E9786E0C0CF5E961C928F
:101F90005E978BE0BBCF5E961C925E9781E0909639
:101FA0008C93909793961C921E92929794968C93F2
:101FB000949772CFCF93DF93EC01BC01665F7F4FA4
:101FC0000E94320F298930E0322F22274A89240FBC
:101FD000311D41E02817390709F040E0842FDF91D7
:101FE000CF9108950F931F93CF93DF93EC018881D6
:101FF0009981DC01ED91FC910084F185E02D09953A
:10200000892B09F445C060E070E0CB010E94C1114A
:102010002E8D88819981DC01ED91FC910284F385FC
:10202000E02D211108C009958A878E3701F78E8D22
:102030008F5F8E8FDCCF09959E8DFE01E90FF11D1C
:102040008287923099F09930B1F0913089F48F3FC6
:1020500079F01E8E81E088A31BA21AA28CA31DA278
:1020600080E0DF91CF911F910F910895863089F71D
:102070009F5F9E8FBCCF8F3E61F7CE010E94DA0F2B
:10208000882339F31E8ECE010E94460F8CA1E9CF22
:102090008DA18823D9F30E9490110A811B812C8184
:1020A0003D81601B710B820B930B0E811F81288574
:1020B0003985601771078207930740F31E8E18A2B7
:1020C0001BA21AA281E0CACFCF93DF93EC01888DC7
:1020D000882361F08DA1882349F060E070E0CB0196
:1020E0000E94C111CE010E94F20FF4CF8881998124
:1020F000DC01ED91FC910280F381E02D4AE050E09B
:10210000BE016C5E7F4F09950E9490116A837B83AC
:102110008C839D83888D91E0811101C090E09DA307
:10212000811108C06AE070E080E090E0DF91CF911B
:102130000C94C111DF91CF910895CF93DF93EC01FF
:102140006F8B598F4A8FBC016C5E7F4F0E94320F9C
:102150009B8F8C8FCE01DF91CF910C94641050E057
:1021600040E00C949D10542F422F0C949D108F92A0
:102170009F92AF92BF92CF92DF92EF92FF921F9306
:10218000CF93DF93EC016A017B010E9490114B0118
:102190005C01C114D104E104F10421F4CE80DF809C
:1021A000E884F984CE010E94F20F182F811111C02A
:1021B0000E949011681979098A099B09C616D706E9
:1021C000E806F90630F060E070E0CB010E94C11132
:1021D000E9CF812FDF91CF911F91FF90EF90DF909A
:1021E000CF90BF90AF909F908F900895462F50E072
:1021F00066E00C949D10462F50E067E00C949D1013
:10220000462F50E069E00E949D1068EC70E080E08D
:1022100090E00C94C1116CE00C94AF101F93CF931D
:10222000DF93EC01142F79836883442301F181E06B
:10223000888F2223F1F0CE010E940B1140ED57E070
:1022400060E070E0CE010E94B71068EC70E080E0C2
:1022500090E00E94C1111CA288A1843069F08930ED
:1022600059F081E08127DF91CF911F910895188E59
:10227000E0CF84E088A3EFCF81E0F5CF6EE00C944F
:10228000AF10242F462F6FE00C94B3101F920F92C3
:102290000FB60F9211242F933F938F939F93AF9379
:1022A000BF938091B5029091B602A091B702B09110
:1022B000B8023091B40226E0230F2D3758F502966C
:1022C000A11DB11D2093B4028093B5029093B60274
:1022D000A093B702B093B8028091B9029091BA026C
:1022E000A091BB02B091BC020196A11DB11D8093CB
:1022F000B9029093BA02A093BB02B093BC02BF9103
:10230000AF919F918F913F912F910F900FBE0F90A2
:102310001F90189529E8230F0396A11DB11DD2CF58
:102320002FB7F8946091B5027091B6028091B70210
:102330009091B8022FBF08953FB7F8948091B902E9
:102340009091BA02A091BB02B091BC0226B5A89BA5
:1023500005C02F3F19F00196A11DB11D3FBFBA2F37
:10236000A92F982F8827BC01CD01620F711D811DF7
:10237000911D43E0660F771F881F991F4A95D1F77B
:1023800008958F929F92AF92BF92CF92DF92EF9279
:10239000FF926B017C010E949C114B015C01C114F6
:1023A000D104E104F104E9F00E940E1C0E949C118A
:1023B000681979098A099B09683E7340810591056E
:1023C00070F321E0C21AD108E108F10888EE880E06
:1023D00083E0981EA11CB11CC114D104E104F104D6
:1023E00029F7FF90EF90DF90CF90BF90AF909F9034
:1023F0008F9008958330910528F0880F991F0497D6
:102400000197F1F70895789484B5826084BD84B50E
:10241000816084BD85B5826085BD85B5816085BDDF
:10242000EEE6F0E0808181608083E1E8F0E01082F8
:10243000808182608083808181608083E0E8F0E039
:10244000808181608083E1E9F0E080818260808327
:10245000808181608083E0E9F0E080818160808319
:10246000E1ECF0E080818460808380818260808301
:10247000808181608083E3ECF0E0808181608083F3
:10248000E0ECF0E0808182608083E2ECF0E080812B
:1024900081608083EAE7F0E08081846080838081CE
:1024A0008260808380818E7F80838081806880834A
:1024B000089581508F3008F047C0E82FF0E0ED59C3
:1024C000FD4E0C94FC1C80128412721278127C1245
:1024D000A412A412A41287128D12911295129B12AB
:1024E000A4129F12809180008F77809380000895BE
:1024F000809180008F7DF9CF80918000877FF5CF1C
:1025000084B58F7784BD089584B58F7DFBCF80918E
:1025100090008F77809390000895809190008F7D38
:10252000F9CF80919000877FF5CF8091C0008F77A1
:102530008093C00008958091C0008F7DF9CF809175
:10254000C200877F8093C2000895CF93DF9390E00D
:10255000FC01E453FF4F249186519F4FFC0184916D
:102560008823C9F090E0880F991FFC01EC5DFE4FB5
:10257000A591B491FC01EA5EFE4FC591D491611121
:102580000DC09FB7F8948C91209582238C938881FD
:10259000282328839FBFDF91CF910895623051F4A3
:1025A0009FB7F8943C91822F809583238C93E88188
:1025B0002E2BEFCF8FB7F894EC912E2B2C938FBF4F
:1025C000EACF1F93CF93DF93282F30E0F901E45433
:1025D000FF4F8491F901E453FF4FD491F901E65183
:1025E000FF4FC491CC23A9F0162F81110E945912DC
:1025F000EC2FF0E0EE0FFF1FEA5EFE4FA591B491C5
:102600008FB7F894EC91111108C0D095DE23DC93BC
:102610008FBFDF91CF911F910895DE2BF8CFCF931D
:10262000DF93282F30E0F901E454FF4F8491F90142
:10263000E453FF4FD491F901E651FF4FC491CC23ED
:10264000A1F081110E945912EC2FF0E0EE0FFF1F54
:10265000E85FFE4FA591B491EC91ED2381E090E00D
:1026600009F480E0DF91CF91089580E090E0FACF07
:10267000CF93DF931F92CDB7DEB76983DC01ED9175
:10268000FC910280F381E02D41E050E0BE016F5FDC
:102690007F4F09950F90DF91CF910895CF93DF93EE
:1026A000EC018C859D8597FF05C082E00E943A1859
:1026B0009D878C878C859D85DF91CF91089583E0E0
:1026C0000E94511890E0089583E00C94BF1AFC0119
:1026D0008485958597FD06C082E00E94E91790E009
:1026E0000196089582E00E94E91790E00895FC01A8
:1026F0008485958597FD05C02FEF3FEF35872487AB
:10270000089582E00C943A18CF93DF93EC01809106
:102710001701882331F083E00E946B181816190600
:1027200034F081E090E09B838A8380E090E0DF9149
:10273000CF910895EEEFFFE72591349181E02B3F93
:102740003C4D09F080E00895FC0190819E5F9083EC
:1027500042E450E062E371E080E80C941D19FC0152
:1027600081819081913A61F4813209F083C047E020
:1027700050E060E171E080E00E941D1981E0089561
:10278000913209F077C0833269F482819381B0E09D
:10279000A0E080930C0190930D01A0930E01B093E3
:1027A0000F01ECCF803239F467E070E080E191E016
:1027B0000E944319E3CF823209F782818093170187
:1027C0000E949A13E0E0F8E0882311F0EEEFFAE0BF
:1027D0008091100190911101A0911201B09113010B
:1027E000803B9440A105B105D9F48091170180FD8B
:1027F00017C0EE3F8AE0F80771F587E797E7918306
:1028000080838091600080930D0388E19BE00FB688
:10281000F894A895809360000FBE90936000AECFAF
:10282000808191818737974709F0A8CFA89580913B
:10283000600088618093600080910D038093600048
:10284000EE3F8AE0F80789F08091FE0A9091FF0A36
:102850009183808393CF808191818737980769F234
:102860009093FF0A8093FE0AC8CF1092FF0A10923D
:10287000FE0A84CF80E008952FEF3FEFFC013587FB
:1028800024870895EDEBF2E01382128288EE93E044
:10289000A0E0B0E084839583A683B7838FEC91E0BA
:1028A000918380838FEF9FEF958784870895FC0144
:1028B000918D228D892F90E0805C9F4F821B910922
:1028C0008F7399270895FC01918D828D981731F0AF
:1028D000828DE80FF11D858D90E008958FEF9FEFB9
:1028E0000895FC01918D828D981761F0A28DAE0F35
:1028F000BF2FB11D5D968C91928D9F5F9F73928FBC
:1029000090E008958FEF9FEF0895FC01538D448D63
:10291000252F30E0842F90E0821B930B541710F08A
:10292000CF9608950197089583EE95E1892B49F09C
:1029300080E090E0892B29F00E94E31581110C942E
:1029400000000895FC01A48DA80FB92FB11DA35A52
:10295000BF4F2C91848D90E001968F739927848FBF
:10296000A689B7892C93A089B1898C9182748C93A4
:10297000938D848D981306C00288F389E02D8081A1
:102980008F7D80830895CF93DF93EC01888D88231A
:10299000B9F0AA89BB89E889F9898C9185FD03C0C2
:1029A000808186FD0DC00FB607FCF7CF8C9185FFA7
:1029B000F2CF808185FFEDCFCE010E94A214E9CF36
:1029C000DF91CF910895EF92FF920F931F93CF93D2
:1029D000DF93EC0181E0888F9B8D8C8D981319C05B
:1029E000E889F989808185FF14C09FB7F894EE8942
:1029F000FF896083E889F9898081827480839FBF21
:102A000081E090E0DF91CF911F910F91FF90EF90C7
:102A10000895F62E0B8D10E00F5F1F4F0F731127D7
:102A2000E02E8C8D8E110CC00FB607FCFACFE88912
:102A3000F989808185FFF5CFCE010E94A214F1CFE4
:102A4000EB8DEC0FFD2FF11DE35AFF4FF0829FB786
:102A5000F8940B8FEA89FB8980818062CFCFCF9277
:102A6000DF92EF92FF921F93CF93DF93EC016A0105
:102A70007B01122F60E874E88EE190E0A7019601D7
:102A80000E94BB1C215031094109510956954795B7
:102A900037952795E889F98982E08083211580E1BF
:102AA000380798F0E889F989108260E472E48FE0D1
:102AB00090E0A70196010E94BB1C215031094109F9
:102AC00051095695479537952795EC85FD853083B7
:102AD000EE85FF852083188EEC89FD891083EA89B5
:102AE000FB89808180618083EA89FB89808188609D
:102AF0008083EA89FB89808180688083EA89FB89F9
:102B000080818F7D8083DF91CF911F91FF90EF9027
:102B1000DF90CF9008951F920F920FB60F9211245D
:102B20002F938F939F93EF93FF93E0911E03F09168
:102B30001F038081E0912403F091250382FD1BC0D7
:102B40009081809127038F5F8F73209128038217D4
:102B500041F0E0912703F0E0E25FFC4F958F809316
:102B60002703FF91EF919F918F912F910F900FBEAF
:102B70000F901F9018958081F4CF1F920F920FB67F
:102B80000F9211242F933F934F935F936F937F93F3
:102B90008F939F93AF93BF93EF93FF938EE093E058
:102BA0000E94A214FF91EF91BF91AF919F918F91DD
:102BB0007F916F915F914F913F912F910F900FBE39
:102BC0000F901F9018958EE093E00E94571421E01B
:102BD000892B09F420E0822F0895EEE0F3E01382C0
:102BE000128288EE93E0A0E0B0E084839583A68310
:102BF000B78381EE91E0918380838DEC90E095879F
:102C000084878CEC90E09787868788EC90E0918BA6
:102C1000808B89EC90E0938B828B8AEC90E0958B93
:102C2000848B8EEC90E0978B868B118E128E138E98
:102C3000148E0895AF92BF92CF92DF92EF92FF92DF
:102C40000F931F93CF93DF936C017B018B01040FD4
:102C5000151FEB015E01AE18BF08C017D10759F070
:102C60006991D601ED91FC910190F081E02DC601B2
:102C70000995892B79F7C501DF91CF911F910F91AC
:102C8000FF90EF90DF90CF90BF90AF900895FB0141
:102C900001900020E9F73197AF01461B570BDC018B
:102CA000ED91FC910280F381E02D0994EF92FF9267
:102CB0000F931F93CF93DF938C017B01D0E0C0E093
:102CC000F701EC0FFD1F6491662361F0D801ED91CF
:102CD000FC910190F081E02DC8010995892B11F03C
:102CE0002196EECFCE01DF91CF911F910F91FF90F2
:102CF000EF9008956115710511F00C94471690E05E
:102D000080E00895DC01ED91FC910190F081E02DCF
:102D100009946FEE71E00C9447168F929F92AF92D8
:102D2000BF92EF92FF920F931F93CF93DF93CDB794
:102D3000DEB7A1970FB6F894DEBF0FBECDBF7C0102
:102D4000FA01CB0119A2223008F42AE08E010F5DAE
:102D50001F4F822E912CB12CA12CBF01A5019401F3
:102D60000E94BB1CF901CA016A300CF5605DD801F4
:102D70006E938D01232B242B252B79F790E080E097
:102D8000109721F0BD01C7010E944716A1960FB60A
:102D9000F894DEBF0FBECDBFDF91CF911F910F9191
:102DA000FF90EF90BF90AF909F908F900895695CD7
:102DB000DECFCF92DF92EF92FF920F931F93CF93CC
:102DC000DF932115310581F4DC01ED91FC91019037
:102DD000F081E02D642FDF91CF911F910F91FF9033
:102DE000EF90DF90CF9009942A30310501F52AE069
:102DF00077FF1DC06A017B01EC016DE20E94821623
:102E00008C0144275527BA014C195D096E097F09C9
:102E10002AE0CE010E948D16800F911FDF91CF9185
:102E20001F910F91FF90EF90DF90CF900895DF9169
:102E3000CF911F910F91FF90EF90DF90CF900C9466
:102E40008D169A01AB01770F660B770B0C94D91690
:102E50000F931F93CF93DF93EC010E9421178C01F6
:102E6000CE010E948916800F911FDF91CF911F9193
:102E70000F910895615030F02091F100FC01208302
:102E80000196F8CF289884E68093B3030895409183
:102E9000AE035091AF032091AC033091AD034217C4
:102EA0005307B4F49091E8009570E1F39091E80035
:102EB00092FD19C08093F1008091AE039091AF0311
:102EC00001968F739927892B19F48EEF8093E80070
:102ED0008091AE039091AF0301969093AF038093DE
:102EE000AE0381E0089580E00895EF92FF920F9382
:102EF0001F93CF93DF93F82E192FE62E042F81E036
:102F0000860F880F0E94471783E00E944717CF2D36
:102F1000D12FEC0EFD2EF11CCE15DF05B9F007FF09
:102F200013C0FE0184910E944717182F80E00E9471
:102F30004717812321968111EFCFDF91CF911F9108
:102F40000F91FF90EF9008958881EDCF81E0F5CF4C
:102F50008091D70081608093D70080EA8093D80069
:102F600089B58F7E89BD89B5826089BD09B400FEAF
:102F7000FDCF61E070E080E090E00E94C11180919F
:102F8000D8008F7C80618093D8008091E000807FA2
:102F90008093E0000895CF93DF931F92CDB7DEB703
:102FA0001982CE0101960E94A4130E94931CBE01B7
:102FB0006F5F7F4F0E940F1C89810F90DF91CF912F
:102FC00008952FB7FC012083F89467706093E9009F
:102FD0000895CF93DF931F92CDB7DEB7682FCE0150
:102FE00001960E94E1178091F20099819FBF0F9096
:102FF000DF91CF910895EF92FF920F931F93CF939C
:10300000DF931F92CDB7DEB79091B203992379F188
:1030100057FD2DC08A017B01682FCE0101960E94C9
:10302000E1178091F20090E0081719070CF4C8012D
:10303000282FF70144E6215038F028984093B30335
:103040003091F1003193F7CF009739F02091F200E1
:10305000211103C02BE62093E80029812FBF0F9098
:10306000DF91CF911F910F91FF90EF9008958FEF17
:103070009FEFF5CFCF93DF931F92CDB7DEB741E03F
:1030800050E0BE016F5F7F4F0E94FB17019731F444
:10309000898190E00F90DF91CF9108958FEF9FEF9E
:1030A000F9CFCF93DF931F92CDB7DEB7682FCE0154
:1030B00001960E94E1179091E800892F807295FF98
:1030C00004C09091F20080E4891B99819FBF0F900A
:1030D000DF91CF9108955F926F927F928F929F922E
:1030E000AF92BF92CF92DF92EF92FF920F931F9316
:1030F000CF93DF931F92CDB7DEB7982E6B01B42E1E
:10310000052F8091B203811113C08FEF9FEF0F90B5
:10311000DF91CF911F910F91FF90EF90DF90CF90B3
:10312000BF90AF909F908F907F906F905F90089529
:103130008091B00380FF05C08091E00082608093A1
:10314000E000EB2CF02EA12C8AEF882E892D8072C6
:10315000682E892D8074582E9AE3792EE114F1049B
:1031600019F4AA2009F457C0892D0E945118182F6C
:1031700081110AC08A94882041F261E070E080E009
:1031800090E00E94C111EACF8E151F0411F00CF0DF
:103190001E2D692DCE0101960E94E1178091E80055
:1031A00085FD03C089818FBFD9CF812F90E0E81AB8
:1031B000F90A662029F01150A0F01092F100FBCF1F
:1031C000F60197FC0AC0115050F021912093F100B4
:1031D000FACF24912093F10031961150D0F7C80E08
:1031E000D91EAA2021F07092E800A12CDBCF80919B
:1031F000E80085FD08C07092E800AA24A394E114B9
:10320000F10481F2F2CFE114F10461F6552051F29C
:103210007092E800C7CF5D9884E68093B4038B2D4D
:10322000902F75CF1092E9001092AF031092AE0369
:103230009093AD038093AC030895DF92EF92FF92D9
:103240000F931F93CF93DF93D82E8A01EB017B015D
:10325000E40EF51ECE15DF0559F0D7FE12C0FE01B3
:1032600084910E94471721968111F4CF0FEF1FEF31
:10327000C801DF91CF911F910F91FF90EF90DF90E8
:1032800008958881EECFAF92BF92DF92EF92FF92C6
:103290000F931F93CF93DF935C018B01EB019BEFA7
:1032A000D92E2097C1F07E01C134D1051CF080E4F5
:1032B000E82EF12C8091E80082FFFCCFC8018C1B26
:1032C0009D0B6E2D8A0D9B1D0E943A17D092E8002F
:1032D000CE19DF09E6CFC801DF91CF911F910F9181
:1032E000FF90EF90DF90BF90AF9008951F920F92E4
:1032F0000FB60F921124EF92FF920F931F932F930B
:103300003F934F935F936F937F938F939F93AF936D
:10331000BF93EF93FF93CF93DF93CDB7DEB76C9757
:10332000DEBFCDBF1092E9008091E80083FF25C089
:1033300068E0CE0145960E943A1782EF8093E8003C
:103340008D8987FF37C09091E80090FFFCCF982FC0
:10335000907609F000C19E894F89588D2F89188D6C
:1033600091112FC0803851F58091B1038093F10005
:103370001092F1008EEF8093E8006C960FB6F894EF
:10338000DEBF0FBECDBFDF91CF91FF91EF91BF9117
:10339000AF919F918F917F916F915F914F913F91ED
:1033A0002F911F910F91FF90EF900F900FBE0F90F4
:1033B0001F9018959EEF9093E800C9CF1092F100EE
:1033C000D7CF913059F48111D5CF4130510591F6C5
:1033D0008091B1038D7F8093B103CCCF933049F4BA
:1033E0008111C8CF4130510529F68091B103826027
:1033F000F2CF953041F48091E80080FFFCCF206847
:103400002093E300B7CF963009F077C0EB8CFC8CAB
:10341000123039F590E080E00E9412190E94CB171B
:103420001F8299E099831A8391E09E8390EA98879E
:103430009AEF99872091AE033091AF03275F3F4FFA
:103440003C832B838D83C7010E94121949E050E011
:10345000BE016F5F7F4F80E00E941D190E94CB1755
:1034600089CFC7010E9412190E94931CBE016B5E96
:103470007F4F0E94371C009731F00CF07BCF81E228
:103480008093EB007ACF113061F11330C1F78F894F
:10349000882381F1823049F440E865E184E991E0D4
:1034A0000E947517882359F365CF813029F440E8CD
:1034B0006DE086E891E0F4CF833009F70E94931C19
:1034C0008E010F5F1F4FB8010E94561CF80101903A
:1034D0000020E9F73197BF01601B710B40E0C80184
:1034E000DFCF64E771E0FB01449150E080E80E9487
:1034F0001D1940CF6AEA71E0F6CF973009F4BFCFCB
:10350000983021F481E08093F10034CF993009F0B4
:1035100031CF837009F0B3CFE9E1F1E081E031E030
:1035200096E32191222371F08093E9003093EB0020
:10353000DF0111972C912093EC009093ED008F5FA9
:10354000873079F78EE78093EA001092EA008F893E
:103550008093B2030FCF8B8D9C8D0E941219898DA1
:10356000811105C0CE0145960E94AF139BCF0E94EA
:10357000931CBE016B5E7F4F0E94751C93CF80939E
:10358000E9008091F200882319F08AE38093E80033
:1035900008951F920F920FB60F9211242F933F930D
:1035A0004F935F936F937F938F939F93AF93BF934B
:1035B000CF93EF93FF93C091E1008091E100837F6F
:1035C0008093E100C3FF0FC01092E90081E0809377
:1035D000EB001092EC0082E38093ED001092B203B6
:1035E00088E08093F000C2FF1BC083E00E94BF1AF6
:1035F0008091B403882341F08091B403815080937B
:10360000B403811101C05D9A8091B303882341F016
:103610008091B30381508093B303811101C0289A34
:10362000C4FF23C08091E2008E7E81608093E2001F
:103630008091E1008F7E8093E1008091B0038E7EC7
:1036400080618093B003FF91EF91CF91BF91AF91D3
:103650009F918F917F916F915F914F913F912F91AA
:103660000F900FBE0F901F901895C0FFECCF809168
:10367000E2008E7E80618093E2008091E1008E7E88
:103680008093E1008091B0038E7E8160DACF10924A
:10369000B2031092B1031092B0030E94A817E1EE9A
:1036A000F0E080818E7E80838DE08093E200559AE9
:1036B000209A0895FC0180819181009711F00C946B
:1036C000B21D0895CF93DF93EC0188819981009713
:1036D00011F00E94B21D198218821D821C821B8269
:1036E0001A82DF91CF9108950F931F93CF93DF93A9
:1036F000EC018B016F5F7F4F888199810E943B1E97
:10370000009751F0998388831B830A8381E0DF91BE
:10371000CF911F910F91089580E0F9CFCF93DF9360
:10372000EC0188819981892B49F08A819B818617D8
:10373000970720F081E0DF91CF910895CE010E949C
:10374000741B8823C1F38C819D81892B99F7E881B3
:10375000F9811082EFCFEF92FF920F931F93CF93D7
:10376000DF93EC017B018A01BA010E948E1B81115B
:103770000BC0CE010E94621BCE01DF91CF911F9141
:103780000F91FF90EF9008951D830C83B7018881FE
:1037900099810E941F1FF0CFFC01118210821382B9
:1037A0001282158214826115710551F0FB0101909E
:1037B0000020E9F73197AF01461B570B0C94AB1B68
:1037C0000895FB0101900020E9F73197AF01461BF6
:1037D000570B0C94AB1BCF93DF93EC016115710574
:1037E00031F00E94E11BCE01DF91CF9108950E943C
:1037F000621BF9CF08950E9403120E94FA1B8BEA04
:1038000093E00E94471B0E940701C4E9D4E10E9493
:10381000C2022097E1F30E949414F9CF0895EF9229
:10382000FF920F931F93CF93DF937B01FC01C28123
:10383000D38110E000E0209791F0E881F9810280C7
:10384000F381E02DB701CE01099597FD06C0080F61
:10385000191F0884D985C02DEECF0FEF1FEFC801C7
:10386000DF91CF911F910F91FF90EF9008950F93EB
:103870001F93CF93DF938B01FC01C281D3812097EB
:1038800071F0E881F9810480F581E02DB801CE0165
:103890000995009731F40884D985C02DF0CF90E0C8
:1038A00080E0DF91CF911F910F9108950F931F93A7
:1038B000CF93DF938B01FC01C281D381209771F0FC
:1038C000E881F9810680F781E02DB801CE010995E4
:1038D000080F111D0884D985C02DF0CFF801108282
:1038E000DF91CF911F910F9108950F931F93CF9365
:1038F000DF938B01FC01C281D381209771F0E881B5
:10390000F9810190F081E02DB801CE010995811176
:1039100005C00884D985C02DF0CF80E0DF91CF911C
:103920001F910F9108958091B50381110DC082E020
:103930008093BD0384E08093BE031092C003109275
:10394000BF0381E08093B5038DEB93E0089597FB6F
:10395000072E16F4009407D077FD09D00E94021DAF
:1039600007FC05D03EF4909581959F4F0895709582
:1039700061957F4F0895A1E21A2EAA1BBB1BFD0182
:103980000DC0AA1FBB1FEE1FFF1FA217B307E4073E
:10399000F50720F0A21BB30BE40BF50B661F771F96
:1039A000881F991F1A9469F7609570958095909576
:1039B0009B01AC01BD01CF010895052E97FB1EF4BC
:1039C00000940E94F41C57FD07D00E94BB1C07FC0A
:1039D00003D04EF40C94F41C5095409530952195ED
:1039E0003F4F4F4F5F4F089590958095709561952B
:1039F0007F4F8F4F9F4F0895EE0FFF1F0590F4915B
:103A0000E02D0994AA1BBB1B51E107C0AA1FBB1FD5
:103A1000A617B70710F0A61BB70B881F991F5A955A
:103A2000A9F780959095BC01CD0108950F931F9340
:103A3000CF93DF938230910510F482E090E0E09123
:103A4000C303F091C40330E020E0B0E0A0E0309781
:103A500099F42115310509F44AC0281B390B24308B
:103A60003105D8F58A819B816115710589F1FB01CA
:103A700093838283FE0111C04081518102811381B1
:103A800048175907E0F04817590799F4109761F063
:103A900012960C93129713961C933296CF01DF91D6
:103AA000CF911F910F9108950093C3031093C40306
:103AB000F4CF2115310551F04217530738F0A90111
:103AC000DB019A01BD01DF01F801C1CFEF01F9CFA0
:103AD0009093C4038093C303CDCFFE01E20FF31F85
:103AE000819391932250310939832883D7CF209134
:103AF000C1033091C203232B41F420910201309184
:103B000003013093C2032093C1032091000130913F
:103B100001012115310541F42DB73EB74091040153
:103B200050910501241B350BE091C103F091C203B4
:103B3000E217F307A0F42E1B3F0B2817390778F084
:103B4000AC014E5F5F4F2417350748F04E0F5F1FE3
:103B50005093C2034093C103819391939FCFF0E0B0
:103B6000E0E09CCFCF93DF930097E9F0FC01329720
:103B700013821282A091C303B091C403ED0130E01F
:103B800020E01097A1F420813181820F931F2091B2
:103B9000C1033091C2032817390709F061C0F093BF
:103BA000C203E093C103DF91CF910895EA01CE17DC
:103BB000DF07E8F54A815B819E0141155105B1F7A8
:103BC000E901FB83EA8349915991C40FD51FEC1792
:103BD000FD0761F4808191810296840F951FE901B0
:103BE00099838883828193819B838A83F0E0E0E0DC
:103BF00012968D919C9113970097B9F52D913C9158
:103C00001197CD010296820F931F2091C10330912D
:103C1000C2032817390739F6309751F51092C403BB
:103C20001092C303B093C203A093C103BCCFD3834C
:103C3000C28340815181840F951FC817D90761F451
:103C40004E5F5F4F88819981480F591F5183408390
:103C50008A819B81938382832115310509F0B0CF3E
:103C6000F093C403E093C3039ECFFD01DC01C0CFFA
:103C700013821282D7CFB0E0A0E0E1E4FEE10C9421
:103C8000301F8C01009751F4CB010E94161D8C014E
:103C9000C801CDB7DEB7E0E10C944C1FFC01E60F84
:103CA000F71F9C0122503109E217F30708F49DC069
:103CB000D901CD91DC911197C617D70798F0C5307F
:103CC000D10530F3CE0104978617970708F3C61B7A
:103CD000D70B2297C193D1936D937C93CF010E9410
:103CE000B21DD6CF5B01AC1ABD0A4C018C0E9D1ED5
:103CF000A091C303B091C403512C412CF12CE12CB1
:103D0000109731F58091C1039091C20388159905F0
:103D100009F05CC04616570608F058C080910001B3
:103D200090910101009741F48DB79EB74091040135
:103D300050910501841B950BE817F90708F055C051
:103D4000F093C203E093C103F90171836083A0CFB4
:103D50008D919C91119712966C90129713967C906E
:103D60001397A815B90559F56C0142E0C40ED11C92
:103D7000CA14DB0420F1AC014A195B09DA0112967E
:103D8000159780F06282738251834083D9016D93CD
:103D90007C93E114F10471F0D7011396FC93EE9338
:103DA000129776CF22968C0F9D1FF9019183808305
:103DB000F301EFCFF093C403E093C30369CF481638
:103DC000590608F42C017D01D3019ACFCB010E9442
:103DD000161D7C01009749F0AE01B8010E94161F24
:103DE000C8010E94B21D870153CF10E000E050CF00
:103DF000FC0188279927E89421912032E9F32930A2
:103E000010F02E30C8F32B3241F02D3239F4689483
:103E100004C00E94261F820F911D219120532A3039
:103E2000C0F31EF4909581959F4F0895FB01DC012E
:103E300002C001900D9241505040D8F70895FB0107
:103E4000DC0101900D920020E1F708957AE0979F40
:103E5000902D879F802D910D112408952F923F92D0
:103E60004F925F926F927F928F929F92AF92BF928A
:103E7000CF92DF92EF92FF920F931F93CF93DF9336
:103E8000CDB7DEB7CA1BDB0B0FB6F894DEBF0FBE93
:103E9000CDBF09942A88398848885F846E847D84E0
:103EA0008C849B84AA84B984C884DF80EE80FD80E2
:103EB0000C811B81AA81B981CE0FD11D0FB6F89458
:103EC000DEBF0FBECDBFED01089510E0CCEDD0E018
:103ED00004C0FE010E94FC1C2196CD3DD107C9F70C
:043EE000F894FFCF84
:103EE4000000C5038000640001000100FFFFFFFF24
:103EF40000E100000000000000C180810000007E9D
:103F0400FF06000100000000EF5858585858585850
:103F14003130307277612F7777772F636F6D7074DC
:103F24006575722E747874002F7777772F636F6DB1
:103F340070746572706F7374322E747874002F7796
:103F440077772F636F6D70746572706F7374332E2F
:103F54007478740033202C20002F7777772F636FC9
:103F64006D70746572706F7374342E74787400009D
:103F7400000000400957093D095609E20AB70ACF73
:103F84000A01000A006400E8033F065B4F666D7D8A
:103F9400077F6F777C395E797100000000BE0C1AD0
:103FA400163D091A0D330D9D0C1B0D000000003841
:103FB4001384135F136413671377134E1300000005
:103FC40000E3141A168514C3145714711463140DE2
:023FD4000A00E1
:00000001FF
