:020000040000FA
:100000000C9462000C948A000C948A000C948A0070
:100010000C948A000C948A000C948A000C948A0038
:100020000C948A000C948A000C948A000C94E802C8
:100030000C948A000C948A000C948A000C948A0018
:100040000C949E020C948A000C946C020C94460250
:100050000C948A000C948A000C948A000C948A00F8
:100060000C948A000C948A000000000023002600F3
:10007000290000000000240027002A0000000000E2
:10008000250028002B0004040404040404040202D4
:100090000202020203030303030301020408102007
:1000A0004080010204081020010204081020000012
:1000B0000008000201000003040700000000000027
:1000C00000007C0511241FBECFEFD8E0DEBFCDBFFE
:1000D00022E0A0E3B1E001C01D92A832B207E1F72F
:1000E00011E0A0E0B1E0E6ECFFE002C005900D9267
:1000F000A033B107D9F710E0C2E6D0E004C02197E1
:10010000FE010E94E005C136D107C9F70E94040430
:100110000C94E1070C940000AF92BF92CF92DF9253
:10012000EF92FF920F931F93CF93DF936C017B01AC
:100130008B01040F151FEB015E01AE18BF08C0173D
:10014000D10759F06991D601ED91FC910190F081B0
:10015000E02DC6010995892B79F7C501DF91CF9173
:100160001F910F91FF90EF90DF90CF90BF90AF90D5
:100170000895FC01538D448D252F30E0842F90E0AD
:10018000821B930B541710F0CF9608950197089592
:10019000FC01918D828D981761F0A28DAE0FBF2F5B
:1001A000B11D5D968C91928D9F5F9F73928F90E0B1
:1001B00008958FEF9FEF0895FC01918D828D981720
:1001C00031F0828DE80FF11D858D90E008958FEF5D
:1001D0009FEF0895FC01918D228D892F90E0805C26
:1001E0009F4F821B91098F739927089587E891E0AB
:1001F0000E94EA0021E0892B09F420E0822F089573
:1002000080E090E0892B29F00E94F60081110C9487
:1002100000000895FC01A48DA80FB92FB11DA35AA9
:10022000BF4F2C91848D90E001968F739927848F16
:10023000A689B7892C93A089B1898C918370806439
:100240008C93938D848D981306C00288F389E02DDA
:1002500080818F7D80830895EF92FF920F931F938B
:10026000CF93DF93EC0181E0888F9B8D8C8D981369
:100270001AC0E889F989808185FF15C09FB7F89475
:10028000EE89FF896083E889F989808183708064C1
:1002900080839FBF81E090E0DF91CF911F910F910C
:1002A000FF90EF900895F62E0B8D10E00F5F1F4F1B
:1002B0000F731127E02E8C8D8E110CC00FB607FC2A
:1002C000FACFE889F989808185FFF5CFCE010E94B8
:1002D0000A01F1CFEB8DEC0FFD2FF11DE35AFF4F1B
:1002E000F0829FB7F8940B8FEA89FB898081806246
:1002F000CFCFCF93DF93EC01888D8823B9F0AA8903
:10030000BB89E889F9898C9185FD03C0808186FDD0
:100310000DC00FB607FCF7CF8C9185FFF2CF80811F
:1003200085FFEDCFCE010E940A01E9CFDF91CF9189
:100330000895833081F028F4813099F08230A9F05B
:1003400008958730A9F08830C9F08430B1F48091E5
:1003500080008F7D03C0809180008F778093800024
:10036000089584B58F7784BD089584B58F7DFBCFC4
:100370008091B0008F778093B00008958091B00095
:100380008F7DF9CF1F93CF93DF93282F30E0F901B2
:10039000E255FF4F8491F901E656FF4FD491F901E0
:1003A000EA57FF4FC491CC23A9F0162F81110E9468
:1003B0009901EC2FF0E0EE0FFF1FE458FF4FA591DD
:1003C000B4918FB7F894EC91111108C0D095DE2349
:1003D000DC938FBFDF91CF911F910895DE2BF8CF73
:1003E000CF93DF9390E0FC01E656FF4F24918A57AC
:1003F0009F4FFC0184918823D1F090E0880F991FD2
:10040000FC01EE58FF4FA591B491FC01E458FF4F59
:10041000C591D49161110EC09FB7F8948C91E22FD1
:10042000E0958E238C932881E223E8839FBFDF91A0
:10043000CF9108958FB7F894EC91E22BEC938FBF96
:10044000F6CF3FB7F8948091430190914401A09179
:100450004501B091460126B5A89B05C02F3F19F074
:100460000196A11DB11D3FBFBA2FA92F982F882734
:10047000BC01CD01620F711D811D911D42E0660F0F
:10048000771F881F991F4A95D1F708951F920F92E1
:100490000FB60F9211242F933F934F935F936F9357
:1004A0007F938F939F93AF93BF93EF93FF9387E8CF
:1004B00091E00E940A01FF91EF91BF91AF919F914E
:1004C0008F917F916F915F914F913F912F910F90FD
:1004D0000FBE0F901F9018951F920F920FB60F929C
:1004E00011242F938F939F93EF93FF93E0919701A4
:1004F000F09198018081E0919D01F0919E0182FD33
:100500001BC090818091A0018F5F8F732091A1010A
:10051000821741F0E091A001F0E0E957FE4F958F7E
:100520008093A001FF91EF919F918F912F910F9058
:100530000FBE0F901F9018958081F4CF1F920F92DD
:100540000FB60F9211242F933F938F939F93AF93E6
:10055000BF9380913F0190914001A0914101B091E2
:10056000420130913E0123E0230F2D3758F50196CB
:10057000A11DB11D20933E0180933F019093400146
:10058000A0934101B09342018091430190914401B5
:10059000A0914501B09146010196A11DB11D809326
:1005A000430190934401A0934501B0934601BF914C
:1005B000AF919F918F913F912F910F900FBE0F9010
:1005C0001F90189526E8230F0296A11DB11DD2CFCA
:1005D0001F920F920FB60F9211242F933F934F93B8
:1005E0005F936F937F938F939F93AF93BF93CF93BB
:1005F000DF93EF93FF932091000130E0F901E25582
:10060000FF4F8491F901E656FF4FD491F901EA5763
:10061000FF4FC491CC2379F081110E949901EC2FF6
:10062000F0E0EE0FFF1FE859FF4FA591B491EC9158
:10063000ED23C1E009F4C0E0C0933D0180913C018D
:100640008823F1F080913B0191E0980F90933B015A
:10065000811116C060E08AE00E94C20160E08CE077
:100660000E94C20110923C0181E080934801809178
:10067000390190913A01019690933A0180933901A2
:1006800080913B01883010F010923B01809148012D
:10069000882309F474C0CC2329F0809138018F5F3E
:1006A000809338018091360190913701C91709F480
:1006B00079C09BE0803508F09DE1890F8093360179
:1006C000C093370120913601203A08F458C0809138
:1006D00034019091350196958795909335018093DB
:1006E000340130913801353028F09860909335010D
:1006F00080933401205A2093360110923801809162
:100700004701882309F46FC0809133018F5F809384
:1007100033018C30A0F14091340150913501942F78
:100720009F73E7E0F1E0DF0180E02D91921721F067
:100730008F5F8031D1F780E090E1899F9001112493
:1007400086E0569547958A95E1F780E091914917A3
:1007500021F08F5F8031D1F780E0822B909167018B
:10076000911124C0809332019CEF980F9B31F0F0DF
:1007700010924701809131018F5F80933101FF9189
:10078000EF91DF91CF91BF91AF919F918F917F9129
:100790006F915F914F913F912F910F900FBE0F90EE
:1007A0001F9018958C5E809336018CCFE091670185
:1007B00091E09E0F90936701F0E0E75BFE4F80832E
:1007C0009091670180913201981750F01092470183
:1007D000809130018F5F8093300181E080936801C8
:1007E00010923301CCCF8091340190913501883340
:1007F0009B4029F681E080934701109233011092CB
:10080000670110926801BBCFCF93DF93CDB7DEB7FE
:100810006E970FB6F894DEBF0FBECDBF789484B547
:10082000826084BD84B5816084BD85B5826085BDEC
:1008300085B5816085BD80916E00816080936E007A
:10084000109281008091810082608093810080916C
:10085000810081608093810080918000816080931D
:1008600080008091B10084608093B1008091B000DD
:1008700081608093B00080917A00846080937A00D8
:1008800080917A00826080937A0080917A00816002
:1008900080937A0080917A00806880937A00109229
:1008A000C100E0919701F091980182E08083E0918E
:1008B0009301F09194011082E0919501F0919601DD
:1008C0008FEC808310929F01E0919B01F0919C013D
:1008D00086E08083E0919901F0919A0180818061A6
:1008E0008083E0919901F0919A01808188608083F2
:1008F000E0919901F0919A01808180688083E09174
:100900009901F0919A0180818F7D808310928000FF
:1009100089E08093810088EE93E090938900809332
:10092000880080916F00826080936F0061E08CE0AE
:100930000E94F00160E0809100010E94F00161E0FE
:100940008AE00E94F00160E08AE00E94C2018BE030
:100950008093000180914801811105C081E080935E
:1009600048011092470161E082E00E94F001CE014F
:1009700001967C0129E6222E21E0322E30E0C32EA2
:1009800030E0D32E80916801882309F458C000918B
:10099000670103500E3108F00EE110E0A8016AE48F
:1009A00071E0C7010E94C807109268012091670199
:1009B000E9E4F1E08FEF9FEF215098F03191832728
:1009C000082E8295807F8025092E982F82958F7022
:1009D0000826869598278927880F880F880F8025F5
:1009E000EBCF883B904F59F599E6892E91E0992EEF
:1009F0005701C5018E199F098017910764F4F5010D
:100A000071905F01672D87E891E00E942C01F4014D
:100A100071924F01EECFF801E759FE4F108250E07E
:100A200040E06BE271E087E891E00E948C0042E0D8
:100A300050E069E271E087E891E00E948C00F101EA
:100A400001900020E9F7CF018A5691405C01BC017A
:100A50006F5F7F4F90E080E00E940B078C01009752
:100A600081F0FC01108269E671E00E94DA07AB2890
:100A700041F06CE271E0C8010E94D10761E0892B6E
:100A800009F060E082E00E94C2010E9421022B0175
:100A90003C0188EE882E83E0982EA12CB12C0E9478
:100AA00021026419750986099709683E734081051A
:100AB0009105A8F3F1E08F1A9108A108B10828EE7A
:100AC000420E23E0521E611C711C81149104A1048A
:100AD000B10429F70115110519F0C8010E94820619
:100AE000C114D10409F44ECF0E94F600882309F402
:100AF00049CF0E94000046CFE7E8F1E0138212825E
:100B000088EE93E0A0E0B0E084839583A683B7836A
:100B10008BE191E09183808385EC90E095878487D9
:100B200084EC90E09787868780EC90E0918B808BB7
:100B300081EC90E0938B828B82EC90E0958B848BA0
:100B400086EC90E0978B868B118E128E138E148E0E
:100B500008952F923F924F925F926F927F928F9261
:100B60009F92AF92BF92CF92DF92EF92FF920F933C
:100B70001F93CF93DF93CDB7DEB7CA1BDB0B0FB646
:100B8000F894DEBF0FBECDBF09942A883988488803
:100B90005F846E847D848C849B84AA84B984C88499
:100BA000DF80EE80FD800C811B81AA81B981CE0F90
:100BB000D11D0FB6F894DEBF0FBECDBFED01089575
:100BC000EE0FFF1F0590F491E02D09940F931F93F2
:100BD000CF93DF938230910510F482E090E0E091B2
:100BE0002602F091270230E020E0B0E0A0E030974C
:100BF00099F42115310509F44AC0281B390B24301A
:100C00003105D8F58A819B816115710589F1FB0158
:100C100093838283FE0111C040815181028113813F
:100C200048175907E0F04817590799F4109761F0F1
:100C300012960C93129713961C933296CF01DF9164
:100C4000CF911F910F9108950093260210932702D0
:100C5000F4CF2115310551F04217530738F0A9019F
:100C6000DB019A01BD01DF01F801C1CFEF01F9CF2E
:100C70009093270280932602CDCFFE01E20FF31F4F
:100C8000819391932250310939832883D7CF2091C2
:100C9000240230912502232B41F42091030130914D
:100CA0000401309325022093240220910101309108
:100CB00002012115310541F42DB73EB740910501E0
:100CC00050910601241B350BE0912402F09125027E
:100CD000E217F307A0F42E1B3F0B2817390778F013
:100CE000AC014E5F5F4F2417350748F04E0F5F1F72
:100CF0005093250240932402819391939FCFF0E07B
:100D0000E0E09CCFCF93DF930097E9F0FC013297AE
:100D100013821282A0912602B0912702ED0130E0E9
:100D200020E01097A1F420813181820F931F209140
:100D30002402309125022817390709F061C0F09389
:100D40002502E0932402DF91CF910895EA01CE17A6
:100D5000DF07E8F54A815B819E0141155105B1F736
:100D6000E901FB83EA8349915991C40FD51FEC1720
:100D7000FD0761F4808191810296840F951FE9013E
:100D800099838883828193819B838A83F0E0E0E06A
:100D900012968D919C9113970097B9F52D913C91E6
:100DA0001197CD010296820F931F2091240230915A
:100DB00025022817390739F6309751F51092270286
:100DC00010922602B0932502A0932402BCCFD383B5
:100DD000C28340815181840F951FC817D90761F4E0
:100DE0004E5F5F4F88819981480F591F518340831F
:100DF0008A819B81938382832115310509F0B0CFCD
:100E0000F0932702E09326029ECFFD01DC01C0CFC4
:100E100013821282D7CFB0E0A0E0E1E1F7E00C94BA
:100E2000AB058C01009751F4CB010E94E6058C01C3
:100E3000C801CDB7DEB7E0E10C94C705FC01E60FB1
:100E4000F71F9C0122503109E217F30708F49DC0F7
:100E5000D901CD91DC911197C617D70798F0C5300D
:100E6000D10530F3CE0104978617970708F3C61B08
:100E7000D70B2297C193D1936D937C93CF010E949E
:100E80008206D6CF5B01AC1ABD0A4C018C0E9D1EAA
:100E9000A0912602B0912702512C412CF12CE12C7B
:100EA000109731F5809124029091250288159905BB
:100EB00009F05CC04616570608F058C08091010141
:100EC00090910201009741F48DB79EB740910501C2
:100ED00050910601841B950BE817F90708F055C0DF
:100EE000F0932502E0932402F90171836083A0CF7F
:100EF0008D919C91119712966C90129713967C90FD
:100F00001397A815B90559F56C0142E0C40ED11C20
:100F1000CA14DB0420F1AC014A195B09DA0112960C
:100F2000159780F06282738251834083D9016D935B
:100F30007C93E114F10471F0D7011396FC93EE93C6
:100F4000129776CF22968C0F9D1FF9019183808393
:100F5000F301EFCFF0932702E093260269CF481602
:100F6000590608F42C017D01D3019ACFCB010E94D0
:100F7000E6057C01009749F0AE01B8010E94C80760
:100F8000C8010E948206870153CF10E000E050CFD5
:100F9000FB01DC0102C001900D9241505040D8F796
:100FA0000895FB01DC018D91019080190110D9F3A6
:100FB000990B0895FB01DC0101900D920020E1F7EF
:100FC0000895F894FFCF0B0000280280000D0E1347
:100FD0001516191A1C232526292A2C323400000044
:100FE000002C018C00B9007901EA00C800DC000D7A
:060FF0000A006F6E000014
:107E0000112484B714BE81FFF0D085E080938100F7
:107E100082E08093C00088E18093C10086E0809377
:107E2000C20080E18093C4008EE0C9D0259A86E02C
:107E300020E33CEF91E0309385002093840096BBD3
:107E4000B09BFECF1D9AA8958150A9F7CC24DD24C4
:107E500088248394B5E0AB2EA1E19A2EF3E0BF2EE7
:107E6000A2D0813461F49FD0082FAFD0023811F036
:107E7000013811F484E001C083E08DD089C08234E0
:107E800011F484E103C0853419F485E0A6D080C0E4
:107E9000853579F488D0E82EFF2485D0082F10E0AE
:107EA000102F00270E291F29000F111F8ED06801E7
:107EB0006FC0863521F484E090D080E0DECF843638
:107EC00009F040C070D06FD0082F6DD080E0C81688
:107ED00080E7D80618F4F601B7BEE895C0E0D1E017
:107EE00062D089930C17E1F7F0E0CF16F0E7DF06D8
:107EF00018F0F601B7BEE89568D007B600FCFDCFD4
:107F0000A601A0E0B1E02C9130E011968C91119780
:107F100090E0982F8827822B932B1296FA010C0160
:107F200087BEE89511244E5F5F4FF1E0A038BF0790
:107F300051F7F601A7BEE89507B600FCFDCF97BE46
:107F4000E89526C08437B1F42ED02DD0F82E2BD052
:107F50003CD0F601EF2C8F010F5F1F4F84911BD097
:107F6000EA94F801C1F70894C11CD11CFA94CF0C13
:107F7000D11C0EC0853739F428D08EE10CD085E9AC
:107F80000AD08FE07ACF813511F488E018D01DD067
:107F900080E101D065CF982F8091C00085FFFCCF94
:107FA0009093C60008958091C00087FFFCCF809118
:107FB000C00084FD01C0A8958091C6000895E0E648
:107FC000F0E098E1908380830895EDDF803219F02E
:107FD00088E0F5DFFFCF84E1DECF1F93182FE3DFCA
:107FE0001150E9F7F2DF1F91089580E0E8DFEE27F6
:047FF000FF270994CA
:027FFE00040479
:00000001FF
